:100000000C943B020C9458020C9458020C94580225
:100010000C9458020C9458020C9458020C945802F8
:100020000C9458020C9458020C94B91F0C94F31FB2
:100030000C9458020C9458020C9458020C945802D8
:100040000C9458020C9458020C9458020C945802C8
:100050000C9458020C9458020C9458020C945802B8
:100060000C9458020C9458020C9458020C945802A8
:100070000C9458020C9458020C9458020C94580298
:100080000C9458020C9458020C9458020C944D1481
:100090000C9458020C9458020C9458020C94580278
:1000A0000C9458020C9458020C94580205A84CCD9C
:1000B000B2D44EB93836A9020C50B9918688083CA2
:1000C000A6AAAA2ABE000000803F6E616E00696E7B
:1000D000660000407A10F35A00A0724E1809001012
:1000E000A5D4E80000E87648170000E40B540200AD
:1000F00000CA9A3B000000E1F505000080969800D8
:10010000000040420F000000A08601000000102700
:1001100000000000E8030000000064000000000090
:100120000A00000000000100000000002C76D888C2
:10013000DC674F0823DFC1DFAE59E1B1B796E5E3D5
:10014000E453C63AE651997696E8E6C28426EB89EE
:100150008C9B62ED407C6FFCEFBC9C9F40F2BAA58B
:100160006FA5F490055A2AF75C936B6CF9676DC123
:100170001BFCE0E40D47FEF520E6B500D0ED902E27
:100180000300943577050080841E080000204E0A85
:10019000000000C80C333333330F986E12831141C3
:1001A000EF8D2114893BE65516CFFEE6DB18D1848E
:1001B0004B381BF77C1D901DA4BBE42420328472B5
:1001C0005E228100C9F124ECA1E53D270001000079
:1001D00079021200020000360243000300003202DE
:1001E00004010309041C0214020309040402160397
:1001F000030904F6010C0C03310032003300340013
:100200003500000016035500530042002000530043
:1002100065007200690061006C0000001403590061
:100220006F007500720020004E0061006D006500D7
:1002300000000403090409024300020100C032095E
:100240000400000102020100052400100105240140
:10025000010104240206052406000107058203109B
:10026000004009040100020A0000000705030240E3
:100270000000070584024000001201000202000095
:1002800010C0167A040001010203010001C112012D
:100290008036018136000000000000005F00000091
:1002A00007000700147F147F14242A7F2A122313C7
:1002B00008646236495522500005030000001C22E4
:1002C00041000041221C0014083E081408083E08A2
:1002D00008005030000008080808080060600000AE
:1002E00020100804023E5149453E00427F40004232
:1002F000615149462141454B311814127F10274561
:100300004545393C4A494930017109050336494997
:100310004936064949291E00363600000056360087
:10032000000814224100141414141400412214086B
:100330000201510906324979413E7E1111117E7F39
:10034000494949363E414141227F4141221C7F4972
:100350004949417F090909013E4149497A7F080815
:10036000087F00417F41002040413F017F08142267
:10037000417F404040407F020C027F7F0408107F95
:100380003E4141413E7F090909063E4151215E7FC0
:1003900009192946464949493101017F01013F4078
:1003A00040403F1F2040201F3F4038403F6314081B
:1003B000146307087008076151494543007F4141B4
:1003C0000002040810200041417F000402010204E1
:1003D0004040404040000102040020545454787FC3
:1003E000484444383844444420384444487F3854CE
:1003F000545418087E0901020C5252523E7F0804E0
:10040000047800447D40002040443D007F10284493
:100410000000417F40007C041804787C08040478C4
:1004200038444444387C14141408081414187C7C90
:10043000080404084854545420043F4440203C40DD
:1004400040207C1C2040201C3C4030403C44281074
:1004500028440C5050503C4464544C4400083641ED
:100460000000007F00000041360800100808100856
:1004700078464146780011241FBECFEFDAE0DEBF98
:10048000CDBF13E0A0E0B1E0E0E8FCE502C00590DC
:100490000D92A838B107D9F727E0A8E8B3E001C06A
:1004A0001D92A830B207E1F70E94F51C0C943E2E75
:1004B0000C9400001F93CF93DF93C82FD62F122FD9
:1004C0005F934F9389E292E09F938F931F928EE107
:1004D0008F9380E894E09F938F930E942A2D8DB78D
:1004E0009EB708960FB6F8949EBF0FBE8DBF212F02
:1004F00040E854E06D2F8C2FDF91CF911F910C9429
:1005000049238091AB01882391F04091AE01509135
:10051000AF0121E067E08AE00E9449234091AC01ED
:100520005091AD0121E061E181E10C9449230895EE
:10053000189B72C00E94722181E08093B40321E075
:100540004BEB51E065E085E00E9449234091B10307
:100550005091B20321E065E088E20E945A0221E056
:1005600042EC51E06FE085E00E9449234091A701F1
:100570005091A80121E06FE088E20E945A0221E038
:1005800049EC51E069E185E00E9449234091AF03C5
:100590005091B00321E069E188E20E945A0221E013
:1005A00040ED51E063E285E00E9449238091AB0376
:1005B0009091AC030A973CF421E047ED51E063E2EF
:1005C00088E20E9449234091AB035091AC0321E0A3
:1005D00063E28EE20E945A0221E045ED51E063E2BF
:1005E00083E30E9449234091AD035091AE0321E083
:1005F00063E288E34A3051056CF447ED51E063E271
:1006000088E30E9449234091AD035091AE0321E05D
:1006100063E28DE30C945A021092B4030895809122
:100620009F03882379F10E94722121E049EC51E077
:1006300069E18FE00E9449234091AF035091B003DC
:1006400021E069E182E30E945A0221E04BEB51E094
:1006500065E08FE00E9449234091B1035091B203BD
:1006600021E065E082E30E945A020E945F212FEFA1
:1006700083ED90E3215080409040E1F700C00000FE
:1006800010929F03089585988698219850985198C4
:1006900027982098229A239A08957E990EC07D99D2
:1006A0000CC0089501967E99FDCF7D99FBCF0E94E5
:1006B000012C81E08093B303089590E080E0F3CFB4
:1006C0001092900083E08093910081E0809371000C
:1006D000789408958091A9019091AA01892B61F4E1
:1006E0001092AB011092B30381E090E09093B003BD
:1006F0008093AF038093A1030E9472214091A901CE
:100700005091AA0121E066E18AE20E945A022FE795
:100710008EE098E0215080409040E1F700C000005A
:100720008091A9019091AA0101979093AA018093C9
:10073000A9010895CF92DF92EF92FF92CF93DF93BA
:100740006091980370919903C0919400D0919500A5
:10075000072E000C880B990B0E940D2920E030E039
:1007600040E857E40E94012A6B017C01BE0190E041
:1007700080E00E940B299B01AC01C701B6010E94D9
:10078000ED2720E030E040E852E40E94012A20E01A
:1007900034E244EF5AE40E9463280E94D528709303
:1007A000AE036093AD036C33710589F48091AB03A4
:1007B0009091AC0301969093AC038093AB0310929D
:1007C000AE031092AD0310929903109298036091BA
:1007D000960370919703C0919400D0919500072ED5
:1007E000000C880B990B0E940D2920E030E040E8B6
:1007F00057E40E94012A6B017C01BE0190E080E079
:100800000E940B299B01AC01C701B6010E94ED2794
:1008100020E030E040E852E40E94012A20E034E287
:1008200044EF5AE40E9463280E94D5287093AA03DB
:100830006093A9036C3371058CF08091A7039091AC
:10084000A80301969093A8038093A7031092AA038C
:100850001092A9031092970310929603DF91CF9103
:10086000FF90EF90DF90CF9008950F931F93CF9359
:10087000DF938091AF039091B00381309105E1F453
:100880008091B403811174C087E694E00E94F42340
:1008900088EB94E00E94F4238EE494E00E94F42319
:1008A00082EE94E00E94F4238EEC93E0DF91CF91EE
:1008B0001F910F910C94F42382309105B9F480912B
:1008C000B403811155C087E694E00E94F42382EEC0
:1008D00094E00E94F42388EB94E00E94F4238EECD1
:1008E00093E00E94F42383EA94E0E0CF03970CF4B2
:1008F0003FC08091B40381113BC087E694E00E9421
:10090000F42382EE94E00E94F42388EB94E00E94AA
:10091000F4238091E003882321F08EEC93E00E9481
:10092000F42380919D03882341F08091DF04882384
:1009300021F08DEC94E00E94F42380919C038823A5
:1009400021F089EB93E00E94F42380919B0388239C
:1009500021F087EF94E00E94F42305EE13E0D0E04D
:10096000C0E08091650490916604C817D9072CF007
:10097000DF91CF911F910F910895C8010E94F42338
:1009800021960B5E1F4FEDCFCF92DF92EF92FF9239
:100990000F93CF93DF938091AF039091B00318161C
:1009A00019060CF048C08091B403811144C020E0C6
:1009B00030E048EA51E460919D0170919E01809180
:1009C0009F019091A0010E94FC2918160CF463C0AD
:1009D00020E030E048EA51EC60919D0170919E0169
:1009E00080919F019091A0010E94592887FD7FC0AE
:1009F00020E030E040E451EC609192037091930369
:100A000080919403909195030E94592887FD9BC083
:100A100020E030E040E451E4609192037091930350
:100A200080919403909195030E94FC29D0E0C0E04E
:100A300018160CF493C0DF91CF910F91FF90EF90B7
:100A4000DF90CF90089501E020E34C2F60E08C2FE1
:100A50000E949B212196BE010D2E000C880B990B44
:100A60000E940D296B017C0120E030E048EA51E44E
:100A700060919D0170919E0180919F019091A001D4
:100A80000E94EC279B01AC01C701B6010E945928C6
:100A900087FDD9CF9DCFD0E0C0E0DDCF8C2F8C5A21
:100AA00001E020E3482F60E00E949B212197BE01D6
:100AB0000D2E000C880B990B0E940D296B017C01F7
:100AC00020E030E048EA51E460919D0170919E0180
:100AD00080919F019091A0010E94ED279B01AC01A4
:100AE000C701B6010E94FC291816C4F281CFD0E0DC
:100AF000C0E0DDCF6C2F605D01E0262F44E580E093
:100B00000E949B212197BE010D2E000C880B990B92
:100B10000E940D296B017C0120E030E040E451E4AB
:100B20006091920370919303809194039091950347
:100B30000E94ED279B01AC01C701B6010E94FC2970
:100B40001816C4F265CFD0E0C0E0DDCF01E02C2F55
:100B500044E56C2F80E00E949B212196BE010D2E62
:100B6000000C880B990B0E940D296B017C0120E081
:100B700030E040E451E460919203709193038091DE
:100B80009403909195030E94EC279B01AC01C7014F
:100B9000B6010E94592887FDD9CF4DCF4F925F9261
:100BA0006F927F928F929F92AF92BF92CF92DF927D
:100BB000EF92FF920F931F93CF93DF93499B4BC20A
:100BC0008091A401882309F446C2C0909203D0907A
:100BD0009303E0909403F090950320E030E04CE024
:100BE00052E4C701B6010E94592818160CF4DCC261
:100BF00080E090E0A0E0BFE38093880390938903B6
:100C0000A0938A03B0938B039C01AD01C701B60189
:100C10000E94ED2760939203709393038093940353
:100C20009093950340908C0350908D0360908E03B9
:100C300070908F03C0908803D0908903E0908A035E
:100C4000F0908B038091A603811138C04092C004BC
:100C50005092C1046092C2047092C304C092C40452
:100C6000D092C504E092C604F092C704A301920199
:100C70006091B8047091B9048091BA049091BB045A
:100C80000E94ED276093B8047093B9048093BA046E
:100C90009093BB04A70196016091BC047091BD04C0
:100CA0008091BE049091BF040E94ED276093BC0424
:100CB0007093BD048093BE049093BF044092560489
:100CC000509257046092580470925904C0925A048A
:100CD000D0925B04E0925C04F0925D04A301920167
:100CE00060914E0470914F04809150049091510492
:100CF0000E94ED2760934E0470934F04809350043C
:100D000090935104A701960160915204709153048D
:100D100080915404909155040E94ED2760935204F1
:100D20007093530480935404909355044092EA04C2
:100D30005092EB046092EC047092ED04C092EE04C9
:100D4000D092EF04E092F004F092F104A30192013A
:100D50006091E2047091E3048091E4049091E504D1
:100D60000E94ED276093E2047093E3048093E4040F
:100D70009093E504A70196016091E6047091E70461
:100D80008091E8049091E9040E94ED276093E604C5
:100D90007093E7048093E8049093E9044092D603AB
:100DA0005092D7036092D8037092D903C092DA03AD
:100DB000D092DB03E092DC03F092DD03A301920109
:100DC0006091CE037091CF038091D0039091D103B5
:100DD0000E94ED276093CE037093CF038093D003DE
:100DE0009093D103A70196016091D2037091D30330
:100DF0008091D4039091D5030E94ED276093D20394
:100E00007093D3038093D4039093D5030091AF03E1
:100E10001091B00302301105E1F58091B5048823EB
:100E2000C1F14092AB045092AC046092AD04709258
:100E3000AE04C092AF04D092B004E092B104F0923C
:100E4000B204A30192016091A3047091A404809163
:100E5000A5049091A6040E94ED276093A3047093CB
:100E6000A4048093A5049093A604A7019601609121
:100E7000A7047091A8048091A9049091AA040E94EB
:100E8000ED276093A7047093A8048093A90490931E
:100E9000AA048090650490906604C5EED3E0B12C5E
:100EA000A12CA814B9040CF488C18091A503811168
:100EB0003FC002301105E4F18091DF048823C1F1C5
:100EC0004092D5045092D6046092D7047092D80410
:100ED000C092D904D092DA04E092DB04F092DC04F0
:100EE000A30192016091CD047091CE048091CF0452
:100EF0009091D0040E94ED276093CD047093CE04AE
:100F00008093CF049093D004A70196016091D104FF
:100F10007091D2048091D3049091D4040E94ED2763
:100F20006093D1047093D2048093D3049093D4043B
:100F30008091A40381113BC003301105C4F140929C
:100F4000C1035092C2036092C3037092C403C09263
:100F5000C503D092C603E092C703F092C803A30171
:100F600092016091B9037091BA038091BB03909193
:100F7000BC030E94ED276093B9037093BA0380937A
:100F8000BB039093BC03A70196016091BD037091D0
:100F9000BE038091BF039091C0030E94ED27609330
:100FA000BD037093BE038093BF039093C0038091F1
:100FB000A30381113FC002301105E4F180910905BE
:100FC0008823C1F14092FF04509200056092010510
:100FD00070920205C0920305D0920405E0920505C7
:100FE000F0920605A30192016091F7047091F80454
:100FF0008091F9049091FA040E94ED276093F70420
:101000007093F8048093F9049093FA04A701960171
:101010006091FB047091FC048091FD049091FE04AA
:101020000E94ED276093FB047093FC048093FD0401
:101030009093FE04DF91CF911F910F91FF90EF905D
:10104000DF90CF90BF90AF909F908F907F906F90E8
:101050005F904F9008951F9B2CC08091A30188231F
:1010600041F1C0909203D0909303E0909403F090EC
:10107000950320E030E040ED51ECC701B6010E943D
:10108000FC2918160CF090C080E090E0A0E0BFEBC7
:101090008093880390938903A0938A03B0938B0372
:1010A00020E030E040E05FE3C701B6010E94EC279A
:1010B000B1CD199B3CC08091A6018823C1F1C0909D
:1010C0009D01D0909E01E0909F01F090A00120E052
:1010D00030E048E652E4C701B6010E94592887FF74
:1010E0001DC020E030E040E05FE3C701B6010E9490
:1010F000ED2760939D0170939E0180939F019093D3
:10110000A00180E090E0A0E0BFE380938C03909387
:101110008D03A0938E03B0938F0384CD10928C0324
:1011200010928D0310928E0310928F037BCD489BFB
:1011300033C08091A501882379F1C0909D01D090A2
:101140009E01E0909F01F090A00120E030E048E790
:1011500052ECC701B6010E94FC291816FCF680E08B
:1011600090E0A0E0BFEB80938C0390938D03A0935D
:101170008E03B0938F0320E030E040E05FE3C701CF
:10118000B6010E94EC2760939D0170939E018093AD
:101190009F019093A00146CD10928C0310928D0375
:1011A00010928E0310928F0310928803109289037D
:1011B00010928A0310928B0335CD023011051CF179
:1011C0008A89882301F1488659866A867B86CC867F
:1011D000DD86EE86FF86A3019201688179818A818E
:1011E0009B810E94ED27688379838A839B83A70173
:1011F00096016C817D818E819F810E94ED276C8399
:101200007D838E839F838FEFA81AB80A659649CE97
:10121000FC0164817581868197810895FC0160815C
:1012200071818281938108950F931F93FC01408304
:1012300051836283738304831583268337831F91CD
:101240000F9108952F923F924F925F926F927F92EB
:101250008F929F92AF92BF92CF92DF92EF92FF92C6
:101260000F931F93CF93DF93CDB7DEB72C970FB6B5
:10127000F894DEBF0FBECDBF5C017C876B875887BB
:101280004F833A8729871701FC0160817181828130
:1012900093810E946E2A0E94D5286B017A8369830C
:1012A000F50164817581868197810E946E2A0E9472
:1012B000D5284B017C836B83EB85FC856081718134
:1012C000828193810E946E2A0E94D5282B017E8301
:1012D0006D83EB85FC8564817581868197810E9491
:1012E0006E2A0E94D528400E511E260E371E2985D3
:1012F0003A85820E931E6815790554F48F8198857E
:10130000C80ED91E81E0ED81FE81EC15FD050CF0C3
:1013100080E029813A81241535050CF080E0EB81CD
:10132000FC81E215F3050CF080E02C960FB6F894E2
:10133000DEBF0FBECDBFDF91CF911F910F91FF9008
:10134000EF90DF90CF90BF90AF909F908F907F9065
:101350006F905F904F903F902F9008954F925F92C3
:101360006F927F928F929F92AF92BF92CF92EF92A5
:101370000F931F93CF93DF93CDB7DEB72A970FB6A6
:10138000F894DEBF0FBECDBF0E94FC2B68E270E078
:101390000E944B2B9E838D830E94FC2B64E170E0A6
:1013A0000E944B2BBC018091AF039091B003813020
:1013B000910509F08AC01092920310929303109243
:1013C00094031092950380E090E0A0EAB1E480934A
:1013D0009D0190939E01A0939F01B093A00122E9EB
:1013E000A22E21E0B22E3BE0C32E47E0E42E00E027
:1013F00010E020EC31E440E050E064E172E487E684
:1014000094E00E94D02351E2A52E51E0B52E63E076
:10141000C62E00E010E020EC31E440E050E060E255
:1014200071E488EB94E00E94D02374E2A72E71E06F
:10143000B72EE6E1CE2EF8E2EF2E00E010E09801A4
:1014400040E050E060EA71E48EE494E00E94D02332
:10145000A7E1AA2EA1E0BA2EBAE0CB2E18E0E12E29
:1014600000E010E020E431E440E050E060E172E4AC
:1014700082EE94E00E94D02301E1A02E01E0B02E84
:1014800086E0C82E95E0E92E00E010E020EC31E483
:1014900040E050E06CE872E48EEC93E00E94D023D0
:1014A0002A960FB6F894DEBF0FBECDBFDF91CF9165
:1014B0001F910F91EF90CF90BF90AF909F908F9022
:1014C0007F906F905F904F9008958230910509F062
:1014D000FAC0072E000C880B990B0E940D29698316
:1014E0007A838B839C83609392037093930380939E
:1014F0009403909395032D813E81B901330F880B9E
:10150000990B0E940D292B013C0140929D015092A4
:101510009E0160929F017092A00132E9A32E31E0FA
:10152000B32E4BE0C42E57E0E52E00E010E020EC97
:1015300031E440E050E064E172E487E694E00E9428
:10154000D0232091BC043091BD044091BE04509141
:10155000BF0469817A818B819C810E94ED276D8314
:101560007E838F8398872091B8043091B90440918D
:10157000BA045091BB04C301B2010E94ED27AB0134
:10158000BC01E1E2AE2EE1E0BE2EF3E0CF2E0D81F4
:101590001E812F81388588EB94E00E94D023209112
:1015A000E6043091E7044091E8045091E904698130
:1015B0007A818B819C810E94ED276D837E838F834E
:1015C00098872091E2043091E3044091E404509123
:1015D000E504C301B2010E94ED27AB01BC01A7E104
:1015E000AA2EA1E0BA2EBAE0CB2E18E0E12E0D8192
:1015F0001E812F81388582EE94E00E94D0232091B5
:10160000D2033091D3034091D4035091D503698123
:101610007A818B819C810E94ED276D837E838F83ED
:1016200098872091CE033091CF034091D003509101
:10163000D103C301B2010E94ED27AB01BC0101E15E
:10164000A02E01E0B02E86E0C82E95E0E92E0D8197
:101650001E812F8138858EEC93E00E94D0238091EB
:10166000B504882309F41CCF2091A7043091A80465
:101670004091A9045091AA0469817A818B819C814F
:101680000E94ED2769837A838B839C832091A30436
:101690003091A4044091A5045091A604C301B20165
:1016A0000E94ED27AB01BC012EE0A22E21E0B22E5C
:1016B000C090B404E090B30409811A812B813C816D
:1016C00083EA94E0EBCE02970CF0EACE072E000CF2
:1016D000880B990B0E940D2969837A838B839C83E5
:1016E0006093920370939303809394039093950374
:1016F000AD81BE81BD01BB0F880B990B0E940D29E6
:101700002B013C0140929D0150929E0160929F01ED
:101710007092A00132E9A32E31E0B32E4BE0C42E2B
:1017200057E0E52E00E010E020EC31E440E050E02E
:1017300064E172E487E694E00E94D0232091BC0427
:101740003091BD044091BE045091BF0469817A81FB
:101750008B819C810E94ED276D837E838F83988788
:101760002091B8043091B9044091BA045091BB045F
:10177000C301B2010E94ED27AB01BC01E1E2AE2E34
:10178000E1E0BE2EF3E0CF2E0D811E812F81388542
:1017900088EB94E00E94D0232091E6043091E70486
:1017A0004091E8045091E90469817A818B819C81A0
:1017B0000E94ED276D837E838F8398872091E204BA
:1017C0003091E3044091E4045091E504C301B20177
:1017D0000E94ED27AB01BC01A7E1AA2EA1E0BA2E21
:1017E000BAE0CB2E18E0E12E0D811E812F813885C5
:1017F00082EE94E00E94D0232091D2033091D30353
:101800004091D4035091D50369817A818B819C8169
:101810000E94ED276D837E838F8398872091CE036E
:101820003091CF034091D0035091D103C301B20155
:101830000E94ED27AB01BC0101E1A02E01E0B02E1A
:1018400086E0C82E95E0E92E0D811E812F81388516
:101850008EEC93E00E94D023E5EEF3E0FA87E9876F
:10186000912C812C809165049091660488169906CC
:101870000CF468C08091CB03882381F12091BD03D3
:101880003091BE034091BF035091C00369817A81BA
:101890008B819C810E94ED276D837E838F83988747
:1018A0002091B9033091BA034091BB035091BC031E
:1018B000C301B2010E94ED27AB01BC0195E0A92E46
:1018C00091E0B92EC090CA03E090C9030D811E813A
:1018D0002F81388589EB93E00E94D0238091090500
:1018E000882309F4DDCD2091FB043091FC04409164
:1018F000FD045091FE0469817A818B819C810E9454
:10190000ED2769837A838B839C832091F704309140
:10191000F8044091F9045091FA04C301B2010E9405
:10192000ED27AB01BC0180E0A82E81E0B82EC0906D
:101930000805E090070509811A812B813C8187EF1A
:1019400094E0ACCDA985BA8552968C9152978823A4
:1019500079F114962D913D914D915C911797698184
:101960007A818B819C810E94ED276D837E838F839A
:101970009887E985FA852081318142815381C301AD
:10198000B2010E94ED27AB01BC012EE0A22E21E0A6
:10199000B22EA985BA855196CC9051975096EC906D
:1019A00050970D811E812F813885CD010E94D02353
:1019B000BFEF8B1A9B0AE985FA857596FA87E98746
:1019C00051CF8F929F92AF92BF92CF92DF92EF92C0
:1019D000FF920F931F93CF93DF93CDB7DEB7809025
:1019E00065049090660485EEC82E83E0D82EB12C55
:1019F000A12CA814B90474F080E0DF91CF911F915D
:101A00000F91FF90EF90DF90CF90BF90AF909F909D
:101A10008F900895F601218930E0408950E0EEA0D2
:101A2000FFA00CA11DA1BE01615F7F4FC6010E94F6
:101A30002209F5E1CF0ED11C8111DFCF8FEFA81A5B
:101A4000B80AD7CF2F923F924F925F926F927F92B8
:101A50008F929F92AF92BF92CF92EF92FF920F938D
:101A60001F93CF93DF93CDB7DEB765970FB6F8948A
:101A7000DEBF0FBECDBF109292031092930310925F
:101A800094031092950380E090E0A0EAB1E4809383
:101A90009D0190939E01A0939F01B093A00181E0CE
:101AA00080939F038091AF039091B0030196909330
:101AB000B0038093AF031092A6038091A403811119
:101AC00002C010929C038091A303811102C0109266
:101AD0009B038091B1039091B2038C599F4F9093D7
:101AE000B2038093B10381E3682E712C95E5892EB2
:101AF000912C0E94FC2B7C010E94FC2B8C01C701C5
:101B0000B3010E944B2BBC01990F880B990B0E94CB
:101B10000D291B012C01C801B4010E944B2BBC01F3
:101B2000990F880B990B0E940D29AB01BC01B7E1FD
:101B3000AB2EB1E0BB2E1AE0C12E08E0E02E9201E0
:101B4000810182EE94E00E94D023E0907804F12C91
:101B50000091770410E02091F30430E04091F2040A
:101B600050E067E674E082EE94E00E942209811161
:101B7000C0CFA5E54A2E512C0E94FC2B7C010E946F
:101B8000FC2B8C01C70161E370E00E944B2BBC0170
:101B9000990F880B990B0E940D293B014C01C8013C
:101BA000B2010E944B2BBC01990F880B990B0E942C
:101BB0000D29AB01BC0131E2A32E31E0B32EE3E0ED
:101BC000CE2EF7E0EF2E9401830188EB94E00E9483
:101BD000D0232090C904312C8090C804912CE0902F
:101BE000F304F12C0091F20410E09101A40162EEE3
:101BF00074E088EB94E00E9422098111BDCFE0904F
:101C00007804F12C0091770410E09101A40167E6BB
:101C100074E088EB94E00E9422098111ADCF80919D
:101C2000AF039091B00302970CF032C28091AF03E2
:101C30009091B00325E5422E512C8230910509F494
:101C4000A0C20CF411C380919D03882309F424C31E
:101C500080919C03811192C00E94FC2B6AE070E08D
:101C60000E944B2B03970CF089C081E080939C036A
:101C700005E5402E512C0E94FC2B7C010E94FC2B80
:101C80008C01C70161E370E00E944B2BBC01990FEE
:101C9000880B990B0E940D293B014C01C801B20130
:101CA0000E944B2BBC01990F880B990B0E940D29A8
:101CB000AB01BC01A5E0AA2EA1E0BA2EB5E0CB2E67
:101CC00013E0E12E9401830189EB93E00E94D0237D
:101CD0002090CA03312C8090C903912CE0907804A5
:101CE000F12C0091770410E09101A40167E674E003
:101CF00089EB93E00E9422098111BDCFE090F304AB
:101D0000F12C0091F20410E09101A40162EE74E064
:101D100089EB93E00E9422098111ADCFE090C904C4
:101D2000F12C0091C80410E09101A40168EB74E06B
:101D300089EB93E00E94220981119DCFE090DE049F
:101D4000F12C0091DD0410E09101A4016DEC74E030
:101D500089EB93E00E94220981118DCFE090DF038F
:101D6000F12C0091DE0310E09101A4016EEC73E010
:101D700089EB93E00E94220981117DCF80919B0322
:101D800081119BC00E94FC2B81E080939B03F5E5B1
:101D90004F2E512C0E94FC2B7C010E94FC2B8C01AD
:101DA000C70161E370E00E944B2BBC01990F880BC7
:101DB000990B0E940D293B014C01C801B2010E9400
:101DC0004B2BBC01990F880B990B0E940D29AB017D
:101DD000BC0120E0A22E21E0B22E35E0C32EE7E0C8
:101DE000EE2E9401830187EF94E00E94D02320908F
:101DF0000805312C80900705912CE0907804F12C97
:101E00000091770410E09101A40167E674E087EF88
:101E100094E00E9422098111BDCFE090F304F12CDF
:101E20000091F20410E09101A40162EE74E087EFEA
:101E300094E00E9422098111ADCFE090C904F12CF9
:101E40000091C80410E09101A40168EB74E087EFF1
:101E500094E00E94220981119DCFE090DE04F12CD4
:101E60000091DD0410E09101A4016DEC74E087EFB6
:101E700094E00E94220981118DCFE090DF03F12CC4
:101E80000091DE0310E09101A4016EEC73E087EF96
:101E900094E00E94220981117DCFE090CA03F12CC9
:101EA0000091C90310E09101A40169EB73E087EF91
:101EB00094E00E94220981116DCF0E94FC2B66E004
:101EC00070E00E944B2B909366048093650495EE1E
:101ED000692E93E0792E912C812C8091650490914C
:101EE0006604881699060CF46AC2809108051F9250
:101EF0008F93809107051F928F938DB79EB745975B
:101F00000FB6F8949EBF0FBE8DBFADB7BEB711968A
:101F100085E1E7EFF4E001900D928A95E1F70E94E8
:101F2000E10C0FB6F894DEBF0FBECDBF8111CFCF4D
:101F3000809178041F928F93809177041F928F93E2
:101F40008DB79EB745970FB6F8949EBF0FBE8DBF55
:101F5000ADB7BEB7119685E1E7E6F4E001900D92CA
:101F60008A95E1F70E94E10C0FB6F894DEBF0FBE30
:101F7000CDBF8111ACCF8091C9041F928F93809106
:101F8000C8041F928F938DB79EB745970FB6F894EC
:101F90009EBF0FBE8DBFADB7BEB7119685E1E8EB12
:101FA000F4E001900D928A95E1F70E94E10C0FB6E2
:101FB000F894DEBF0FBECDBF811189CF8091DF03C2
:101FC0001F928F938091DE031F928F938DB79EB7E0
:101FD00045970FB6F8949EBF0FBE8DBFADB7BEB785
:101FE000119685E1EEECF3E001900D928A95E1F710
:101FF0000E94E10C0FB6F894DEBF0FBECDBF811179
:1020000066CF8091CA031F928F938091C9031F925C
:102010008F938DB79EB745970FB6F8949EBF0FBEAE
:102020008DBFADB7BEB7119685E1E9EBF3E0019046
:102030000D928A95E1F70E94E10C0FB6F894DEBF8D
:102040000FBECDBF811143CF8091F3041F928F93B8
:102050008091F2041F928F938DB79EB745970FB66C
:10206000F8949EBF0FBE8DBFADB7BEB7119685E188
:10207000E2EEF4E001900D928A95E1F70E94E10C06
:102080000FB6F894DEBF0FBECDBF811120CFECC0DC
:1020900014E2A12E11E0B12E06E1C02E88E2E82E56
:1020A00000E010E028EC32ECB901A8018EE494E0E5
:1020B0000E94D02395E5492E512CC090DF03E0907B
:1020C000DE030E94FC2B4C010E94FC2B8C01C401FE
:1020D00061E370E00E944B2BBC01990F880B990BB8
:1020E0000E940D293B014C01C801B2010E944B2BFB
:1020F000BC01990F880B990B0E940D29AB01BC0103
:10210000B1E1AB2EB1E0BB2E940183018EEC93E0E4
:102110000E94D0232090DF03312C8090DE03912C8D
:10212000E090F304F12C0091F20410E09101A4017D
:1021300062EE74E08EEC93E00E9422098111BDCF23
:10214000E090C904F12C0091C80410E09101A401B1
:1021500068EB74E08EEC93E00E9422098111ADCF10
:10216000E0907804F12C0091770410E09101A40133
:1021700067E674E08EEC93E00E94220981119DCF06
:1021800055CD0E94FC2B7C010E94FC2B8C01C701C9
:1021900061E370E00E944B2BBC01990F880B990BF7
:1021A0000E940D293B014C01C801B2010E944B2B3A
:1021B000BC01990F880B990B0E940D29AB01BC0142
:1021C000EEE0AE2EE1E0BE2EF3E0CF2EA5E0EA2E4B
:1021D0009401830183EA94E00E94D0232090B40408
:1021E000312C8090B304912CE090F304F12C0091F9
:1021F000F20410E09101A40162EE74E083EA94E03D
:102200000E9422098111BDCFE090C904F12C0091F8
:10221000C80410E09101A40168EB74E083EA94E043
:102220000E9422098111ADCFE0907804F12C009139
:10223000770410E09101A40167E674E083EA94E07A
:102240000E94220981119DCFE090DF03F12C0091C3
:10225000DE0310E09101A4016EEC73E083EA94E0E8
:102260000E94220981118DCF65960FB6F894DEBFCA
:102270000FBECDBFDF91CF911F910F91FF90EF90D7
:10228000CF90BF90AF909F908F907F906F905F9016
:102290004F903F902F9008950E94FC2B6AE070E0D1
:1022A0000E944B2B03970CF0D3CC81E080939D03CD
:1022B00035E5432E512C0E94FC2B7C010E94FC2B07
:1022C0008C01C70161E370E00E944B2BBC01990FA8
:1022D000880B990B0E940D293B014C01C801B201EA
:1022E0000E944B2BBC01990F880B990B0E940D2962
:1022F000AB01BC018AE0A82E81E0B82E94E0C92E83
:1023000027E0E22E940183018DEC94E00E94D0231B
:102310002090DE04312C8090DD04912CE090780434
:10232000F12C0091770410E09101A40167E674E0BC
:102330008DEC94E00E9422098111BDCFE090F3045E
:10234000F12C0091F20410E09101A40162EE74E01E
:102350008DEC94E00E9422098111ADCFE090C90478
:10236000F12C0091C80410E09101A40168EB74E025
:102370008DEC94E00E94220981119DCFE090B4047D
:10238000F12C0091B30410E09101A40163EA74E020
:102390008DEC94E00E94220981118DCFE090DF0343
:1023A000F12C0091DE0310E09101A4016EEC73E0CA
:1023B0008DEC94E00E94220981117DCF49CCC09020
:1023C000B404E090B3040E94FC2B2C010E94FC2B6F
:1023D0008C01C20161E370E00E944B2BBC01990F9C
:1023E000880B990B0E940D291B012C01C80165E582
:1023F00070E00E944B2BBC01990F880B990B0E9437
:102400000D29AB01BC018EE0A82E81E0B82E92010F
:102410008101CE0101960E94D02385E1FE01319613
:10242000D30101900D928A95E1F72FEF821A920A5B
:1024300035E1630E711C51CD4F925F926F927F9286
:102440008F929F92AF92BF92CF92DF92EF92FF92C4
:10245000CF93DF93CDB7DEB72C970FB6F894DEBFDE
:102460000FBECDBF8091B4038111F7C08091A1034D
:10247000882309F4F2C080919F038111EEC08091FE
:10248000CE039091CF03A091D003B091D103898363
:102490009A83AB83BC838090670490906804A0907B
:1024A0006904B0906A048091D2039091D303A09103
:1024B000D403B091D5038D839E83AF83B887C0903A
:1024C0006B04D0906C04E0906D04F0906E04A50154
:1024D000940169817A818B819C810E94EC2720E0A4
:1024E00030E04CE352E40E94FC291816F4F02981F4
:1024F0003A814B815C81C501B4010E94EC272B011C
:102500003C016091DE0370E06B5D7F4F072E000C95
:10251000880B990B0E940D299B01AC01C301B201EC
:102520000E94FC2918160CF0ADC01092A004198668
:102530001A861B861C86C501B4010E946E2A4B01B7
:102540005C0169817A818B819C810E946E2A9B014A
:10255000AC01C501B4010E94EC274B015C01C7012D
:10256000B6010E946E2A6B017C016D817E818F8194
:1025700098850E946E2A9B01AC01C701B6010E949A
:10258000EC276B017C01A5019401C501B4010E94F7
:10259000012A2B013C01A7019601C701B6010E9447
:1025A000012A9B01AC01C301B2010E94ED272FEF6C
:1025B00036EE4BED5EE20E94ED270E94A02A2B0131
:1025C0003C0129853A854B855C85C501B4010E9493
:1025D000012AA30192010E9463284B015C01298515
:1025E0003A854B855C85C701B6010E94012AA3018B
:1025F00092010E9463286B017C018092D603909225
:10260000D703A092D803B092D903C092DA03D09234
:10261000DB03E092DC03F092DD03A5019401698104
:102620007A818B819C810E94ED276093CE03709309
:10263000CF038093D0039093D1032D813E814F81AE
:102640005885C701B6010E94ED276093D2037093AD
:10265000D3038093D4039093D5032C960FB6F894AC
:10266000DEBF0FBECDBFDF91CF91FF90EF90DF9027
:10267000CF90BF90AF909F908F907F906F905F9022
:102680004F900895A70196016D817E818F81988575
:102690000E94EC2720E030E040EC51E40E94FC294D
:1026A00018160CF442CF2D813E814F815885C70109
:1026B000B6010E94EC272B013C016091DF0370E022
:1026C000685E7F4F072E000C880B990B0E940D2926
:1026D0009B01AC01C301B2010E94FC2918160CF445
:1026E00024CF81E08093A00480E090E0A0E0BEE3EE
:1026F00089879A87AB87BC871ECF80917A008064D8
:1027000080937A0080917A0086FDFCCF60917800FA
:102710007091790090E080E00E940B2920E030EC7D
:102720004FE754E40E9463282BED3FE049E450E476
:102730000E94012A20E030E040E850E40E94012A93
:102740000895FC0101900020E9F73197BF01681B53
:10275000790B0C94D01DCF93DF938091A103882334
:1027600009F498C089ED91E00E94A11385E593E0FA
:102770000E94A1138091B2038F938091B1038F9334
:102780008AEE91E09F938F93C0E8D4E0DF93CF93DC
:102790000E945A2DCE010E94A11385E593E00E946C
:1027A000A1138091B0038F938091AF038F9384EF37
:1027B00091E09F938F93DF93CF930E945A2DCE0188
:1027C0000E94A11385E593E00E94A11380919F04CC
:1027D0008F9380919E048F938EEF91E09F938F93C0
:1027E000DF93CF930E945A2DCE010E94A11385E55D
:1027F00093E00E94A1138091E4038F938091E303FF
:102800008F9389E092E09F938F93DF93CF930E9401
:102810005A2DCE010E94A11385E593E00E94A113D9
:102820008091A8018F938091A7018F9384E192E01A
:102830009F938F93DF93CF930E945A2DCE010E94D6
:10284000A11385E593E00E94A1138091AA038F93C1
:102850008091A9038F938091A8038F938091A70300
:102860008F938EE192E09F938F93DF93CF930E949B
:102870005A2D8DB79EB786960FB6F8949EBF0FBEA1
:102880008DBFCE010E94A11385E593E0DF91CF912A
:102890000C94A113DF91CF9108951F920F920FB660
:1028A0000F9211242F933F934F935F936F937F93D6
:1028B0008F939F93AF93BF93EF93FF938091980370
:1028C0009091990301969093990380939803809136
:1028D00096039091970301969093970380939603A4
:1028E0000E94AB13FF91EF91BF91AF919F918F9198
:1028F0007F916F915F914F913F912F910F900FBEFC
:102900000F901F9018958091A7019091A8010197B1
:102910009093A8018093A7011092A6031092A4039C
:102920001092A3038CE292E00E94A1130C94AE09D2
:102930008FE30E94872321E049E452E06AE08AE0C5
:102940000E9449230E945F210E94051D0E941E1DB6
:102950008823E1F30E94722121E048E552E06AE019
:102960008AE00E94492386E692E00E94A11385E551
:1029700093E00E94A1130C945F21AF92BF92CF927B
:10298000EF920F931F9380E88093610081E0809322
:1029900061008FE30E94872380B38C7980BB109203
:1029A0007C0080917C00806480937C0080917C001E
:1029B000816080937C0080917A00806880937A00A7
:1029C00080917A00846080937A0080917A0082609E
:1029D00080937A0080917A00816080937A000E94CF
:1029E00060030E9443031092AE031092AD03109255
:1029F000AC031092AB03109299031092980382E9F2
:102A0000A82E81E0B82E9BE0C92E27E0E22E00E040
:102A100010E020EC31E440E050E064E172E487E64D
:102A200094E00E94D02331E2A32E31E0B32E43E0A4
:102A3000C42E00E010E020EC31E440E050E060E221
:102A400071E488EB94E00E94D02354E2A52E51E07B
:102A5000B52E66E1C62E78E2E72E00E010E0980180
:102A600040E050E060EA71E48EE494E00E94D023FC
:102A7000E7E1AE2EE1E0BE2EFAE0CF2EA8E0EA2E8E
:102A800000E010E020E431E440E050E060E172E476
:102A900082EE94E00E94D023B1E1AB2EB1E0BB2ED8
:102AA00016E0C12E05E0E02E00E010E020EC31E45D
:102AB00040E050E06CE872E48EEC93E00E94D0239A
:102AC0008091900390919103892B11F40E949814A6
:102AD0000E9472211F910F91EF90CF90BF90AF9005
:102AE0000C945F211F93CF93DF938091A0038823E1
:102AF000A1F180919003909191030196909391039D
:102B0000809390030E94722121E042E752E065E049
:102B10008AE00E94492321E049EC51E064E184E12C
:102B20000E9449234091AF035091B00321E064E13A
:102B300087E30E945A0221E04BEB51E06EE184E111
:102B40000E9449234091B1035091B20321E06EE10C
:102B500087E30E945A020E945F217E9935C07D99C9
:102B600033C0DF91CF911F910895D093A801C093F6
:102B7000A7011092B2031092B1031092A003109219
:102B8000B4031093AB011092B30310929F03D09340
:102B9000AA01C093A9011092B0031092AF03109242
:102BA000AE031092AD031092AC031092AB031092DF
:102BB0009903109298031092A1030E94BD147E996C
:102BC000D4CF7D99D2CFCDCFC3E0D0E011E0F7CF05
:102BD0002F923F924F925F926F927F928F929F922D
:102BE000AF92BF92CF92DF92EF92FF920F931F931B
:102BF000CF93DF93CDB7DEB72A970FB6F894DEBF39
:102C00000FBECDBF60914E0470914F04809150046F
:102C1000909151040E946E2A0E94D5287093A204BC
:102C20006093A10460915204709153048091540404
:102C3000909155040E946E2A0E94D52870930F052A
:102C400060930E0560916704709168048091690437
:102C500090916A040E946E2A0E94D52870939F0466
:102C600060939E0460916B0470916C0480916D047C
:102C700090916E040E946E2A0E94D5287093E403FE
:102C80006093E3036091B8047091B9048091BA0431
:102C90009091BB040E946E2A0E94D52870930D0566
:102CA00060930C056091BC047091BD048091BE04DA
:102CB0009091BF040E946E2A0E94D52870937F04D1
:102CC00060937E046091CE037091CF038091D00316
:102CD0009091D1030E946E2A0E94D52870936404BB
:102CE000609363046091D2037091D3038091D40305
:102CF0009091D5030E946E2A0E94D52870937D047E
:102D000060937C048091A7019091A8011816190680
:102D1000FCF081E08093A0030E9472152A960FB602
:102D2000F894DEBF0FBECDBFDF91CF911F910F9101
:102D3000FF90EF90DF90CF90BF90AF909F908F90DB
:102D40007F906F905F904F903F902F900C945F21F9
:102D50000E940F030E9472210E9481020E944D0373
:102D60000E94C4048091B303882331F08091A103B1
:102D7000811102C00E946A030E94CE050E941C12AB
:102D80000E949A030E9498020E9435047AE0E72E7E
:102D9000F12C08E010E02BE030E047E050E062EE7C
:102DA00074E087E694E00E942209882309F43CC17C
:102DB0008091A603882309F493C00E94220D80917C
:102DC000AF039091B0030197029790F466E0E62E6E
:102DD000F12C05E010E02BE030E047E050E06EEC35
:102DE00073E087E694E00E94220981110E94831417
:102DF0002091F304822F90E098878F836091F204F2
:102E0000E62FF0E0FA83E9836091DF03262F30E0BC
:102E10003E832D832090DE03312C7C018F01A101A4
:102E200062EE74E08EEC93E00E942209882309F49C
:102E300043C16091D2037091D3038091D4039091E8
:102E4000D5030E946E2A6B017C016091E6047091AB
:102E5000E7048091E8049091E9040E946E2A2B0116
:102E60003C016091CE037091CF038091D00390918B
:102E7000D1030E946E2A4B015C01EF81F885BF01EE
:102E8000FF0F880B990B0E940D29A30192010E944C
:102E9000ED2720E030E040E85FE30E94EC279B0153
:102EA000AC01C701B6010E9459288111C7C08092A8
:102EB000CE039092CF03A092D003B092D10320E032
:102EC00030E040E050E4C701B6010E94ED27609376
:102ED000D2037093D3038093D4039093D503ECC0B3
:102EE00060916B0470916C0480916D0490916E04FC
:102EF0000E946E2A69837A838B839C836091E604A7
:102F00007091E7048091E8049091E9040E946E2A90
:102F10006B017C016091F30470E090E080E00E941E
:102F20000D29A70196010E94ED2720E030E040E83E
:102F30005FE30E94EC279B01AC0169817A818B8160
:102F40009C810E945928811103C01092A40137CF9F
:102F500060916704709168048091690490916A049B
:102F60000E946E2A4B015C016091E2047091E304BF
:102F70008091E4049091E5040E946E2A2B013C01AB
:102F80006091770470E090E080E00E940D29A50137
:102F900094010E94ED2720E030E040E85FE30E94CA
:102FA000EC27A30192010E945928811103C01092BD
:102FB000A50105CF6091F20470E090E080E00E94EE
:102FC0000D29A30192010E94ED2720E030E040E8A6
:102FD0005FE30E94EC279B01AC01C501B4010E9494
:102FE0005928811103C01092A601E9CE609178049E
:102FF00070E090E080E00E940D2929813A814B81A8
:103000005C810E94ED2720E030E040E85FE30E9411
:10301000EC279B01AC01C701B6010E945928811120
:10302000CECE1092A301CBCE81E08093A4018093F9
:10303000A5018093A6018093A301C1CE6091E20413
:103040007091E3048091E4049091E5040E946E2A5B
:103050006F83788789879A87B101330C880B990B26
:103060000E940D29A50194010E94ED2720E030E087
:1030700040E85FE30E94EC272F81388549855A8517
:103080000E9459288111BCC020E030E040E050E4AB
:10309000C501B4010E94EC276093CE037093CF0367
:1030A0008093D0039093D103C092D203D092D303E4
:1030B000E092D403F092D50353E0E52EF12C07E023
:1030C00010E02BE030E047E050E068EB74E087E68A
:1030D00094E00E942209882359F08091A60381116F
:1030E00004C08FE792E00E94A11381E08093A603C1
:1030F0004AE0E42EF12C08E010E02BE030E047E05D
:1031000050E062EE74E087E694E00E942209882392
:1031100051F08091A603882331F08AE992E00E9461
:10312000A1130E94220D8091AF039091B0038130D2
:10313000910509F0FDC136E1E32EF12C08E210E023
:1031400026E030E045E050E06EE474E08EEC93E081
:103150000E942209882309F4DDC06091D203709196
:10316000D3038091D4039091D5030E946E2A6B0102
:103170007C016091520470915304809154049091A9
:1031800055040E946E2A2B013C016091CE03709180
:10319000CF038091D0039091D1030E946E2A4B01FE
:1031A0005C0120E030E040EB51E4C301B2010E9439
:1031B000ED2720E030E040E85FE30E94EC279B0130
:1031C000AC01C701B6010E945928811167C08092E5
:1031D000CE039092CF03A092D003B092D10320E00F
:1031E00030E040E050E4C701B6010E94ED27609353
:1031F000D2037093D3038093D4039093D5038AC0F2
:1032000029813A81B901330F880B990B0E940D294E
:103210002F81388549855A850E94ED2720E030E0CE
:1032200040E85FE30E94EC27A50194010E94592821
:10323000811109C020E030E040E050E4C501B40154
:103240000E94ED2729CFED81FE81BF01FF0F880B82
:10325000990B0E940D29A70196010E94ED2720E0FD
:1032600030E040E85FE30E94EC279B01AC01C30122
:10327000B2010E94592881111FCF8092CE039092F3
:10328000CF03A092D003B092D10320E030E040E021
:1032900050E4C701B6010E94EC2719CE60914E049C
:1032A00070914F0480915004909151040E946E2AB5
:1032B00069837A838B839C8320E030E040EA50E48A
:1032C000C501B4010E94ED2720E030E040E85FE353
:1032D0000E94EC2729813A814B815C810E94592808
:1032E00081116FC020E030E040E050E4C501B4013E
:1032F0000E94EC276093CE037093CF038093D0039A
:103300009093D103C092D203D092D303E092D4031E
:10331000F092D5032AE0E22EF12C08E010E02BE039
:1033200030E047E050E062EE74E087E694E00E940F
:103330002209882329F08091A60381110E94220D81
:1033400096E1E92EF12C08E210E02BE030E047E0B6
:1033500050E06EE474E087E694E00E94220988233E
:1033600009F4DCC060916B0470916C0480916D0471
:1033700090916E040E946E2A4B015C016091520490
:103380007091530480915404909155040E946E2AC8
:103390006B017C0120E030E040EB51E40E94ED271E
:1033A00020E030E040E85FE30E94EC279B01AC01A5
:1033B000C501B4010E945928811149C01092A4018D
:1033C000ADCC20E030E040E252E469817A818B812B
:1033D0009C810E94ED2720E030E040E85FE30E94FE
:1033E000EC27A50194010E945928811109C020E011
:1033F00030E040E050E4C501B4010E94ED277ACFEF
:1034000020E030E040EC50E4C701B6010E94ED2717
:1034100020E030E040E85FE30E94EC279B01AC0134
:10342000C301B2010E945928811174CF8092CE034A
:103430009092CF03A092D003B092D10320E030E06D
:1034400040E050E4C701B6010E94EC27D0CE609165
:103450006704709168048091690490916A040E94E5
:103460006E2A2B013C0160914E0470914F048091B3
:103470005004909151040E946E2A69837A838B8351
:103480009C8320E030E040EE50E4C301B2010E9492
:10349000ED2720E030E040E85FE30E94EC2729813F
:1034A0003A814B815C810E945928811103C010929E
:1034B000A50134CC20E030E040E252E469817A8119
:1034C0008B819C810E94ED2720E030E040E85FE3A3
:1034D0000E94EC279B01AC01C301B2010E94592854
:1034E000811103C01092A60119CC20E030E040E326
:1034F00051E4C501B4010E94ED2720E030E040E82E
:103500005FE30E94EC279B01AC01C701B6010E945A
:103510005928811103CC1092A30100CC81E0809343
:10352000A4018093A5018093A6018093A301F6CB0B
:103530008230910519F5E090B404F12C0091B304A8
:1035400010E02BE030E047E050E063EA74E087E60B
:1035500094E00E942209882309F4E0CB8091B5040D
:10356000882349F08091B1039091B2030A96909319
:10357000B2038093B1031092B504D0CB03970CF43F
:10358000CDCB80919D03882341F180919E038111D1
:1035900024C0E090DE04F12C0091DD0410E02BE06B
:1035A00030E047E050E06DEC74E087E694E00E9484
:1035B0002209882391F0F1E0F0939E03F093A50394
:1035C00084EC92E00E94A1138091A203882309F465
:1035D0009AC11092A3031092A40386E0E82EF12C66
:1035E00005E010E02BE030E047E050E06EEC73E0E7
:1035F00087E694E00E942209882321F18091E0036C
:10360000882301F180919E03882309F480C11092E0
:10361000A50310929E031092DF0410929D03109256
:10362000E00380EE92E00E94A11385EF92E00E94F9
:10363000A1138091A203882309F46CC11092A40302
:103640001092A30380919C03882341F1E090CA0368
:10365000F12C0091C90310E02BE030E047E050E08E
:1036600069EB73E087E694E00E9422098823B1F0B9
:103670008091A403811104C080E193E00E94A11312
:1036800081E08093A4039091A203992309F446C199
:103690001092A50310929E031092A30380919B03A6
:1036A000882309F4F6C0E0900805F12C0091070585
:1036B00010E02BE030E047E050E067EF74E087E691
:1036C00094E00E9422098823B1F08091A303811124
:1036D00004C089E293E00E94A11381E08093A303D8
:1036E0009091A203992309F41CC11092A403109293
:1036F000A50310929E038091A303882309F414C1AB
:103700000E947D136B017C0160917704669570E0E7
:1037100090E080E00E940D292091670430916804B8
:103720004091690450916A040E94ED2769837A836D
:103730008B839C83C701B6010E945E284B015C010C
:1037400060917804669570E090E080E00E940D2919
:1037500020916B0430916C0440916D0450916E0483
:103760000E94ED272B013C01C701B6010E94922A5D
:103770006B017C0120E030E040EA51E40E94012A24
:10378000A30192010E94ED270E94DC286F8320E0B4
:1037900030E040EA51E4C501B4010E94012A2981C8
:1037A0003A814B815C810E94ED270E94DC286D8369
:1037B000C301B2010E94DC28162F69817A818B81B6
:1037C0009C810E94DC28862F01E02F814D81612F92
:1037D0000E949B217E9902C07D9B5BC081E080930B
:1037E0009A031092A3031092A20360917704669546
:1037F00070E090E080E00E940D29209167043091F4
:1038000068044091690450916A040E94ED272B01DD
:103810003C0120E030E040E751E4C501B4010E94E2
:10382000012A9B01AC01C301B2010E94ED27609304
:10383000F7047093F8048093F9049093FA0460916C
:103840007804669570E090E080E00E940D29209158
:103850006B0430916C0440916D0450916E040E9491
:10386000ED274B015C0120E030E040E751E4C70167
:10387000B6010E94012A9B01AC01C501B4010E945E
:10388000ED276093FB047093FC048093FD049093F8
:10389000FE04A0906504B090660485EE93E09A83E0
:1038A0008983D12CC12CCA14DB040CF037CAE981FE
:1038B000FA81E188F12C008910E02BE030E047E04C
:1038C00050E0BF0187E694E00E942209882389F036
:1038D000E981FA818289882349F08091B10390912E
:1038E000B2030A969093B2038093B103E981FA81FF
:1038F000128AFFEFCF1ADF0A29813A812B5E3F4FF0
:103900003A832983D0CF21E02093A20366CE0E9480
:1039100083148FCE81E08093A20394CE8093A20380
:10392000BDCE8093A203E7CE80919A03882309F449
:10393000B0CF8091A1019091A201845691099093FA
:10394000A2018093A1018C3DE5E09E07C1F52A9A72
:103950002B9A8091A1019091A201181619060CF4DE
:1039600098CF83E493E00E94A1138091A004882360
:1039700089F18091E003882369F18091A101909100
:10398000A201181619060CF484CF1092E00388E502
:1039900093E00E94A1138091B1039091B2030A9623
:1039A0009093B2038093B10310929B0380ED97E054
:1039B0009093A2018093A10110929A036ACF883E4E
:1039C000F3E09F0719F42A982B98C3CF843F9140C6
:1039D000D1F7BDCF80ED97E09093A2018093A10134
:1039E00010929A0310929B0354CF0E94BD140E9420
:1039F000E8158FE19EE40197F1F700C00000F7CFD2
:103A00008091E80080FFFCCF089581E08093D7008B
:103A100080EA8093D80082E189BD09B400FEFDCF21
:103A200080E98093D8001092E0001092B8031092C1
:103A3000B5038CE08093E200789408958091B803F8
:103A400008959FB7F8948091B803811104C09FBF77
:103A50008FEF9FEF089583E08093E9002BE680913C
:103A6000E80085FD05C082FFF2CF2093E800F7CF84
:103A70008091F1002091E80025FD03C02BE6209302
:103A8000E8009FBF90E008952FB7F8948091B803A5
:103A9000811103C080E02FBF089583E08093E90087
:103AA0008091F2008111F7CF9091E80092FFF2CF60
:103AB00095FDF0CF9BE69093E800EDCF8091B803A1
:103AC000882359F08FB7F89493E09093E9002BE6A0
:103AD0009091E80095FD02C08FBF08952093E80003
:103AE000F7CF9091B803911102C08FEF08959FB75F
:103AF000F89424E02093E9002091B603222341F0BA
:103B00002091E80025FD02C09FBFEFCF1092B603C1
:103B10002091E400275E34E04091E80045FD12C0AA
:103B20009FBF9091E400921304C081E08093B6039C
:103B3000DCCF9091B8039923C1F29FB7F8943093EA
:103B4000E900EACF8093F1008091E80085FD03C091
:103B50008AE38093E80085E08093B7039FBF80E00D
:103B600008959091B803992351F09FB7F89424E0F9
:103B70002093E9002091E80025FD03C09FBF8FEF4F
:103B800008958093F1008091E80085FD03C08AE3E9
:103B90008093E80085E08093B7039FBF80E008959D
:103BA000DC018091B803811102C08FEF08958FB7B7
:103BB000F89494E09093E9009091B603992341F032
:103BC0009091E80095FD02C08FBFEFCF1092B60331
:103BD00024E030E44AE355E06115710511F480E01A
:103BE00008959091E400975EE091E800E5FD12C031
:103BF0008FBF8091E400891304C081E08093B603F5
:103C0000D4CF8091B803882381F28FB7F8942093A2
:103C1000E900EACF9091F200E32FE91B9E2FE6170F
:103C2000170611F008F0962FE92FF0E06E1B7F0BBE
:103C3000913408F041C1E15EF14E0C945F2B601F9E
:103C40005C1F581F541F501F4C1F481F441F401F0C
:103C50003C1F381F341F301F2C1F281F241F201FFC
:103C60001C1F181F141F101F0C1F081F041F001FEC
:103C7000FC1EF81EF41EF01EEC1EE81EE41EE01EE4
:103C8000DC1ED81ED41ED01ECC1EC81EC41EC01ED4
:103C9000BC1EB81EB41EB01EAC1EA81EA41EA01EC4
:103CA0009C1E981E941E901E8C1E881E841E801EB4
:103CB0007C1E781E741E701E6C1E681E641E601EA4
:103CC0009C919093F10011969C919093F100119624
:103CD0009C919093F10011969C919093F100119614
:103CE0009C919093F10011969C919093F100119604
:103CF0009C919093F10011969C919093F1001196F4
:103D00009C919093F10011969C919093F1001196E3
:103D10009C919093F10011969C919093F1001196D3
:103D20009C919093F10011969C919093F1001196C3
:103D30009C919093F10011969C919093F1001196B3
:103D40009C919093F10011969C919093F1001196A3
:103D50009C919093F10011969C919093F100119693
:103D60009C919093F10011969C919093F100119683
:103D70009C919093F10011969C919093F100119673
:103D80009C919093F10011969C919093F100119663
:103D90009C919093F10011969C919093F100119653
:103DA0009C919093F10011969C919093F100119643
:103DB0009C919093F10011969C919093F100119633
:103DC0009C919093F10011969C919093F100119623
:103DD0009C919093F10011969C919093F100119613
:103DE0009C919093F10011969C919093F100119603
:103DF0009C919093F10011969C919093F1001196F3
:103E00009C919093F10011969C919093F1001196E2
:103E10009C919093F10011969C919093F1001196D2
:103E20009C919093F10011969C919093F1001196C2
:103E30009C919093F10011969C919093F1001196B2
:103E40009C919093F10011969C919093F1001196A2
:103E50009C919093F10011969C919093F100119692
:103E60009C919093F10011969C919093F100119682
:103E70009C919093F10011969C919093F100119672
:103E80009C919093F10011969C919093F100119662
:103E90009C919093F10011969C919093F100119652
:103EA0009C919093F10011969C919093F100119642
:103EB0009C919093F10011969C919093F100119632
:103EC0009091E80095FF4093E8005093B7038FBFAF
:103ED00083CE8FB7F8949091B703992341F094E083
:103EE0009093E9009AE39093E8001092B7038FBF94
:103EF00008956091B0017091B1018091B2019091EB
:103F0000B30108958091B40108958091B501089599
:103F10008091B60108958091B50308959FB7F894F4
:103F20002091B803211103C09FBF8FEF089522E0B5
:103F30002093E9002091E80025FFF6CF21EA2093A5
:103F4000F10020E22093F1001092F1001092F100B4
:103F50001092F1001092F10021E02093F1001092F4
:103F6000F1008093F1008AE38093E8009FBF80E036
:103F700008951F920F920FB60F9211248F939F9363
:103F80008091E1001092E10083FF11C01092E900DE
:103F900091E09093EB001092EC0092E19093ED0091
:103FA00098E09093F0001092B8031092B50382FF4E
:103FB00013C08091B803882379F08091B7038823D8
:103FC00059F081508093B703811106C084E080933B
:103FD000E9008AE38093E8009F918F910F900FBED4
:103FE0000F901F9018951F920F920FB60F921124E9
:103FF000EF92FF920F931F932F933F934F935F93F3
:104000006F937F938F939F93AF93BF93CF93DF93E0
:10401000EF93FF931092E9008091E80083FF74C052
:10402000D091F100C091F1008091F100E090F10099
:10403000FE2CE82E8091F1000091F100102F082F46
:104040008091F1009091F10022EF2093E800C630BA
:1040500009F066C02CEC31E0F90145915491E41669
:10406000F50609F04AC0F9013296459154910417BA
:10407000150709F042C0F901349645915491F901B0
:104080003696E4918F3F910519F010F08FEF90E094
:10409000E81708F48E2F3EEF9091E800292F257045
:1040A000D9F392FD13C0982F813108F090E1FA0105
:1040B000292F21112FC0490F511DE82FE91B9E2FD9
:1040C0003093E800E11124C0803110F5FF91EF91A9
:1040D000DF91CF91BF91AF919F918F917F916F9120
:1040E0005F914F913F912F911F910F91FF90EF9012
:1040F0000F900FBE0F901F901895295F3F4F41E022
:10410000263F340709F0A8CF81E28093EB00DECF91
:10411000892FC2CF64916093F10021503196C9CFAD
:10412000C53051F48EEF8093E8000E94001D8E2D63
:1041300080688093E300CACFC93069F5D111E4CF1C
:10414000E092B8031092B5031092B7038EEF8093FC
:10415000E80021E08BE892E02093E900AC014F5F9A
:104160005F4FFC0134913093EB00332391F0FA015F
:1041700044914093EC003196E4910396E093ED0076
:104180002F5F253049F78EE18093EA001092EA0014
:104190009DCFCA01F5CFC83069F4D03809F0B4CF4B
:1041A0000E94001D8091B8038093F1008EEF8093F0
:1041B000E8008CCFC13281F4D13A09F0A5CF0E943A
:1041C000001DE0EBF1E087EB91E021912093F100FD
:1041D0008E179F07D1F7EACFC032A9F4D13209F088
:1041E00093CF8091E80082FFFCCFE0EBF1E087EB1A
:1041F00091E02091F10021938E179F07D1F78BEF6B
:104200008093E800D3CFC23241F4D13209F07CCFA1
:10421000E092B5030E94001DC9CFC11112C00E94D7
:10422000001DD23849F40093E900C091EB00C5FBB2
:10423000CC27C0F91092E900C093F1001092F10070
:10424000B5CF8C2F8D7F813009F05ECFD23009F051
:104250005BCFEF2809F058CF0F778FEF800F8430B6
:1042600008F052CF8EEF8093E8000093E900C3304E
:1042700009F44ACF89E18093EB0081E090E001C02E
:10428000880F0A95EAF780CF87E880937A0008952F
:10429000982F9F71906490937C00807280937B0034
:1042A00080917A00806480937A0080917A0086FD04
:1042B000FCCF2091780030917900C9010895CF9307
:1042C000DF9360E080E00E94C423C0E1D5E0699103
:1042D00081E00E94692387E0C830D807C1F7DF91E9
:1042E000CF910895E0E1F5E0119287E0E830F8071A
:1042F000D9F708958435D8F46033C8F4962F96958D
:1043000096959695E82FF0E084E5989FE00DF11DD5
:104310001124E05FFA4F2081677081E090E001C0D6
:10432000880F6A95EAF7442319F0822B8083089559
:1043300080958223FBCF2F923F924F925F926F9294
:104340007F928F929F92AF92BF92CF92DF92EF9225
:10435000FF920F931F93CF93DF93CDB7DEB72E97C6
:104360000FB6F894DEBF0FBECDBF89836B83242EBA
:10437000122F841330C0E62EF12CC22ED12C2B81AB
:104380002117E8F4CE14DF040CF01FC12E960FB6EF
:10439000F894DEBF0FBECDBFDF91CF911F910F917B
:1043A000FF90EF90DF90CF90BF90AF909F908F9055
:1043B0007F906F905F904F903F902F900895EC14F6
:1043C000FD0424F3402F6E2D89810E947A2121E083
:1043D000E21AF108D4CF3B81321320C08981E82E44
:1043E000F12CC42ED12C9981921560F4CE14DF04E7
:1043F0006CF2402F6B818E2D0E947A213FEFE31AE1
:10440000F30AF1CFEC14FD040CF2402F6B818E2DDA
:104410000E947A2181E0E81AF108E5CF298142174C
:1044200028F0812F1B818B83222E49839981892F2C
:1044300090E09A838983312CBC0162197309072E9D
:10444000000C880B990B0E940D296D837E838F834E
:1044500098873B81232F30E03C832B83812F90E092
:104460009E878D87B901681B790B072E000C880B7E
:10447000990B0E940D294B015C012D813E814F81DA
:1044800058850E9463282B013C0120E030E0A901FF
:104490000E94FC2987FF04C077FA709477F8709423
:1044A000C12CD12C760120E030E0A9016D817E8104
:1044B0008F8198850E94FC2918160CF07FC02981F5
:1044C0003A81221533050CF461CF122D402F6D85F2
:1044D000822D0E947A21A3019201C701B6010E9498
:1044E000ED276B017C0120E030E040E05FE30E94BB
:1044F000FC2987FD10C020E030E0A901C501B4010E
:104500000E94FC291816BCF48B819C812D853E8568
:1045100082179307BCF420E030E0A9016D817E8111
:104520008F8198850E94FC2918160CF043C03FEF3C
:10453000231A330AB8CF8B819C812D853E8528179D
:1045400039074CF3402F6D85812F0E947A2121E09D
:1045500030E03A87298720E030E0A901C501B401A5
:104560000E94FC29181614F01A86198681E090E042
:104570009C878B8720E030E0A901C501B4010E942F
:10458000592887FD02C01C861B8689859A852B8544
:104590003C85821B930B2D853E85280F391F3E8756
:1045A0002D8720E030E040E85FE3C701B6010E94BC
:1045B000EC2797CF81E0281A310875CF89819A813D
:1045C000281639060CF081CFE1CE402F6E2D89815F
:1045D0000E947A219FEFE91AF90AD1CE7F928F9239
:1045E0009F92AF92BF92CF92DF92EF92FF920F9382
:1045F0001F93CF93DF93982E862E722E4052550B29
:1046000025E0249FC001259F900D1124F12CE12C61
:104610009C012B563D4F6901AA24A394B12CF601AD
:10462000EE0DFF1DE491711001C0E09510E000E077
:10463000CE2FD0E0A501002E02C0440F551F0A94D2
:10464000E2F74C235D23002E02C0559547950A944E
:10465000E2F7682D600F892D0E947A210F5F1F4FAE
:104660000830110539F73FEFE31AF30A939485E018
:10467000E816F104A1F6DF91CF911F910F91FF9001
:10468000EF90DF90CF90BF90AF909F908F907F90F2
:104690000895EF92FF920F931F93CF93DF93D82F3C
:1046A000F62E8A01E22EC0E0F801EC0FF11D4081E8
:1046B000411107C0DF91CF911F910F91FF90EF90B3
:1046C00008952E2D6F2D8D2F0E94EE22DB5FCF5F80
:1046D000EBCF95B19F7D40E2849F90011124922BF6
:1046E00095B95F9887E090E070E08F989B01082E65
:1046F00002C0359527950A94E2F720FF06C02E9A4E
:104700008F9A019790F75F9A08952E98F9CFCF93DB
:10471000C82F579A249A259A269A879A2C985F9A96
:104720002C9A61E280E00E9469236C2F606880E02F
:104730000E94692364E080E00E94692363E180E0D5
:104740000E9469236CE080E00E94692360E280E0BF
:104750000E9469236CE080E00E94692360E480E0AD
:104760000E94692360E880E0CF910C946923CF9385
:10477000DF93C8EFD1E060E081E00E9469232197D8
:10478000D1F7DF91CF910895CF93C82F606480E077
:104790000E9469236C2F606880E0CF910C9469239C
:1047A000AF92BF92CF92EF920F931F93FC01408381
:1047B0005183628373830483158326833783E08A5E
:1047C000C18AB48AA38A81E0828B10861186128600
:1047D000138614861586168617861F910F91EF9003
:1047E000CF90BF90AF9008957F928F929F92AF929B
:1047F000BF92CF92DF92EF92FF920F931F93CF93CE
:10480000DF938C01DC0152968C915297882309F436
:1048100074C06D917D918D919C910E946E2A0E9431
:10482000D5286B015B01F8016481758186819781D0
:104830000E946E2AF4E5CF16D1040CF05EC0D801B8
:104840005096CC91D0E0CC0EDD1E1C141D040CF053
:1048500054C00E94D528603371050CF04EC0F80199
:10486000218930E0260F371F121613060CF045C0C1
:10487000279633E0D595C7953A95E1F7762E912C9A
:10488000812CD12CC12CD80151968C918C151D04F2
:10489000A1F19CF1F12CE12C23C0C70123E09595F7
:1048A00087952A95E1F7D8015396ED91FC91E80D93
:1048B000F91DE80FF91F408150E0C70180959095E0
:1048C0008770992702C0559547958A95E2F7417000
:1048D000672D8A2D8E0D0E947A21BFEFEB1AFB0AFD
:1048E000F80180898E151F0409F0BCF6FFEFCF1A7E
:1048F000DF0A8C0E9D1E7394C6CFDF91CF911F915E
:104900000F91FF90EF90DF90CF90BF90AF909F906E
:104910008F907F900895AFE0B0E0E1E9F4E20C946D
:10492000652B6C011B015A01FC01178216828381E1
:1049300081FF48C39E012F5F3F4F4901F6019381DC
:10494000F10193FD859193FF81911F01882309F463
:10495000E7C2853239F493FD859193FF81911F0160
:10496000853239F4B60190E00E94FA2C35015301EA
:10497000E5CFF12C512C00E0003238F48B3209F1F4
:1049800090F48032F9F0833209F107FD34C020ED54
:10499000280F2A3020F506FF1BC0FAE0FF9E200DED
:1049A0001124F22E05C08D3279F0803371F7016049
:1049B000F10193FD859193FF81911F018111DCCF5E
:1049C0001AC002600460F4CF0860F2CF0061F0CF3B
:1049D0003AE0539E200D1124522E0062E9CF8E3210
:1049E00021F406FD9DC20064E3CF8C3611F400680B
:1049F000DFCF8836E9F29BEB980F933008F05FC069
:104A00000061805E06FD02C046E0F42E102F1F7389
:104A1000853609F05BC0106417FF61C08F2D9BE3E2
:104A20009F1508F48BE344244394480E27E0350196
:104A3000F4E06F0E711CF5016081718182819381B8
:104A4000042DA4010E940C2C5C01F981FC87F0FF6D
:104A500003C00DE2F3FF07C00BE211FD04C0012FFC
:104A6000047012FD00E22C852C70E22E09F457C070
:104A70000111ABC2F3E0E12CF515A0F483E0E52CC5
:104A8000E81A13FD08C0B60180E290E00E94FA2CFB
:104A9000EA94E110F8CF002329F0B601802F90E0CE
:104AA0000E94FA2C3C852AECA22E20E0B22E33FD87
:104AB00004C09EECA92E90E0B92E107122C09BE993
:104AC000980F933008F033C10F7E9CCF863611F4D7
:104AD0001068A2CFFF2009F49FCFFA949DCFE7E0A2
:104AE0002F2DEF1518F427E037E0F32E412C9FCF40
:104AF00011118052B60190E00E94FA2C8FEFA81A93
:104B0000B80AF50184918111F3CFEE2009F42FCF7B
:104B1000B60180E290E00E94FA2CEA94F6CF17FFEB
:104B20006FC04A0CFC85F4FF04C08A81813309F40C
:104B30004A9414140CF086C028E0241510F488E080
:104B4000482E85E090E017FF06C0C501B7FE02C001
:104B500090E080E0019601110196FF2031F02F2DA9
:104B600030E02F5F3F4F820F931F5816190619F040
:104B700014F0E52CE81A812F897011F4E11067C058
:104B8000002329F0B601802F90E00E94FA2C13FD3B
:104B900002C0E11063C017FF7CC08501B7FE02C0F0
:104BA00010E000E0C501841991092C016F2D70E01F
:104BB000EE27FF27E61BF70BFF87EE870F3F100757
:104BC00029F4B6018EE290E00E94FA2CA016B106FC
:104BD0000CF44BC0401651060CF047C0F501E01B29
:104BE000F10BE80DF91D8181015011092E853F85DA
:104BF00002171307E4F1B60190E00E94FA2CDECF11
:104C000016FD9FCFEF2DF0E0EA15FB0534F03CEFE9
:104C1000A3163FEFB3060CF010683296E80DF91DAD
:104C200001C0FA94FF2019F082918033D1F317FF6D
:104C300088CF442443944F0CFA141B0431F02CF019
:104C4000FA187FCF442443947CCFF12C7ACFB6015D
:104C500080E290E00E94FA2CEA9490CFB60180E3C3
:104C600090E00E94FA2CEA9494CF80E3BDCFA01686
:104C7000B10641F49A81963350F4953319F43C858A
:104C800034FF05C0B60190E00E94FA2C3ECF81E3CC
:104C9000F9CF8A81813319F09C859F7E9C87B6016C
:104CA00090E00E94FA2CFF20A9F0B6018EE290E07D
:104CB0000E94FA2CF394F394E2E001E00E0FE80D69
:104CC000F92DF11D8081B60190E00E94FA2CE02FB1
:104CD0000F11F3CF85E690E014FF02C085E490E069
:104CE000B6010E94FA2CB7FC06C0A114B104C1F4AD
:104CF000EC85E4FF15C0B194A194B1088DE2B60132
:104D000090E00E94FA2C80E32AE0A216B10454F449
:104D1000B60190E00E94FA2CB601C501C096B4CF4E
:104D20008BE2EDCF8F5FFAE0AF1AB108EDCF83369B
:104D3000C9F0833771F1833509F05BC03501F2E0CA
:104D40006F0E711CF501A080B1806F2D70E006FD23
:104D500002C06FEF7FEFC5010E94E42C9D878C8716
:104D600000680DC0350132E0630E711CF5018081D1
:104D7000898321E030E03D872C8754010F7703FDC4
:104D800006C02C853D855216130609F0A8F4E52CC3
:104D90002BC0350132E0630E711CF501A080B1809B
:104DA0006F2D70E006FD02C06FEF7FEFC5010E941E
:104DB000EF2C9D878C87E2CFB60180E290E00E94C5
:104DC000FA2C5A94DECFF50107FD859107FF8191FA
:104DD0005F01B60190E00E94FA2CE110EA948C8504
:104DE0009D8501979D878C87EC85FD85EF2B59F775
:104DF0008CCE843619F0893609F074C0350107FF6E
:104E000066C0F4E06F0E711CF501608171818281D2
:104E10009381102F1F7697FF08C09095809570950D
:104E200061957F4F8F4F9F4F10682AE030E0A401BB
:104E30000E947D2DA82EA818BA2C012F16FF0AC09B
:104E40000E7FAF1438F414FF04C012FD02C0012F0E
:104E50000E7EBF2C04FF8EC0FE01EA0DF11D808185
:104E6000803309F080C0097EF02FF870EF2E03FD2B
:104E700090C000FF8AC0FA2CB51410F4F50CFB1892
:104E800004FF8DC0B60180E390E00E94FA2C02FF7F
:104E900009C088E790E001FF02C088E590E0B60114
:104EA0000E94FA2CAF1408F486C0AA940A2D10E0D0
:104EB0000F5F1F4F080D191DF80182918F01B60178
:104EC00090E00E94FA2C80169106B1F71ECEF2E017
:104ED0006F0E711CF50160817181072E000C880B2B
:104EE000990B97CF102F8537A9F41F7E2AE030E069
:104EF000350117FF2FC0F4E06F0E711CF5016081C2
:104F0000718182819381A4010E947D2DA82EA81811
:104F10001F7792CF197F8F36D1F048F4883591F002
:104F2000F601868197812F96E2E10C94812B8037E0
:104F300039F08837A9F714FD146020E130E0D8CFAC
:104F40001061F9CF04FD166020E132E0D1CF28E0F6
:104F500030E0CECFF2E06F0E711CF50160817181FF
:104F600090E080E0D0CF02FD02C0B3947DCFB39437
:104F7000B3947ACF802F867809F476CFF6CFB60136
:104F800080E290E00E94FA2CB394B514C0F3E12CB7
:104F900077CFE52CEB18B51408F472CFF8CF802F3B
:104FA000867809F47FCF8BE201FF80E207FD8DE276
:104FB000B60190E075CFB60180E390E00E94FA2C34
:104FC000FA9470CF8FEF9FEFAECF24E0E12C251540
:104FD00008F063CD84E053CD5058BB27AA270E9428
:104FE00004280C94AE290E94752938F00E947C296F
:104FF00020F039F49F3F19F426F40C9472290EF432
:10500000E095E7FB0C946C29E92F0E94D32958F313
:10501000BA17620773078407950720F079F4A6F59D
:105020000C94F5290EF4E0950B2EBA2FA02D0B0150
:10503000B90190010C01CA01A0011124FF27591BDD
:1050400099F0593F50F4503E68F11A16F040A22FE3
:10505000232F342F4427585FF3CF46953795279554
:10506000A795F0405395C9F77EF41F16BA0B620B53
:10507000730B840BBAF09150A1F0FF0FBB1F661F9A
:10508000771F881FC2F70EC0BA0F621F731F841FDD
:1050900048F4879577956795B795F7959E3F08F003
:1050A000B0CF9395880F08F09927EE0F97958795C5
:1050B00008950E94482908F481E008950E948529F6
:1050C000E3950C94BF290E9477280C94AE290E9486
:1050D0007C2958F00E94752940F029F45F3F29F09F
:1050E0000C946C2951110C94F6290C9472290E948D
:1050F000D32968F39923B1F3552391F3951B550BED
:10510000BB27AA2762177307840738F09F5F5F4F9A
:10511000220F331F441FAA1FA9F335D00E2E3AF0D9
:10512000E0E832D091505040E695001CCAF72BD0F1
:10513000FE2F29D0660F771F881FBB1F2617370742
:105140004807AB07B0E809F0BB0B802DBF01FF2774
:1051500093585F4F3AF09E3F510578F00C946C29BC
:105160000C94F6295F3FE4F3983ED4F38695779547
:105170006795B795F7959F5FC9F7880F911D96952D
:10518000879597F90895E1E0660F771F881FBB1F89
:10519000621773078407BA0720F0621B730B840B36
:1051A000BA0BEE1F88F7E09508950E94DC286894FA
:1051B000B1110C94F62908950E94DB2988F09F57BD
:1051C00098F0B92F9927B751B0F0E1F0660F771F2B
:1051D000881F991F1AF0BA95C9F714C0B13091F021
:1051E0000E94F529B1E008950C94F529672F782FD6
:1051F0008827B85F39F0B93FCCF3869577956795E6
:10520000B395D9F73EF490958095709561957F4F51
:105210008F4F9F4F0895E89409C097FB3EF49095F7
:105220008095709561957F4F8F4F9F4F9923A9F07F
:10523000F92F96E9BB279395F6958795779567950E
:10524000B795F111F8CFFAF4BB0F11F460FF1BC052
:105250006F5F7F4F8F4F9F4F16C0882311F096E9E5
:1052600011C0772321F09EE8872F762F05C0662393
:1052700071F096E8862F70E060E02AF09A95660F4C
:10528000771F881FDAF7880F9695879597F9089505
:10529000990F0008550FAA0BE0E8FEEF1616170647
:1052A000E807F907C0F012161306E407F50798F0AF
:1052B000621B730B840B950B39F40A2661F0232BC8
:1052C000242B252B21F408950A2609F4A140A69544
:1052D0008FEF811D811D089597F99F6780E870E029
:1052E00060E008959FEF80EC089500240A9416165C
:1052F000170618060906089500240A9412161306C4
:105300001406050608950C9472290E94DB29D8F32F
:10531000E894E0E0BB279F57F0F02AED3FE049EC2E
:1053200006C0EE0FBB0F661F771F881F28F0B23A2A
:1053300062077307840728F0B25A620B730B840B61
:10534000E3959A9572F7803830F49A95BB0F661FF3
:10535000771F881FD2F790480C94FD2A092E0394DA
:10536000000C11F4882352F0BB0F40F4BF2B11F452
:1053700060FF04C06F5F7F4F8F4F9F4F0895EF9383
:10538000E0FF07C0A2EA2AED3FE049EC5FEB0E9494
:1053900004280E94AE290F90039401FC9058ECEA77
:1053A000F0E00C94102B57FD9058440F551F59F006
:1053B0005F3F71F04795880F97FB991F61F09F3F02
:1053C00079F087950895121613061406551FF2CF2B
:1053D0004695F1DF08C0161617061806991FF1CF7B
:1053E00086957105610508940895E894BB276627A2
:1053F0007727CB0197F908950E94482908F48FEF89
:1054000008950E94142A0C94AE290E94752938F040
:105410000E947C2920F0952311F00C946C290C94A7
:10542000722911240C94F6290E94D32970F3959FB8
:10543000C1F3950F50E0551F629FF001729FBB278B
:10544000F00DB11D639FAA27F00DB11DAA1F649F27
:105450006627B00DA11D661F829F2227B00DA11DDA
:10546000621F739FB00DA11D621F839FA00D611D60
:10547000221F749F3327A00D611D231F849F600D81
:10548000211D822F762F6A2F11249F5750409AF0AA
:10549000F1F088234AF0EE0FFF1FBB1F661F771F36
:1054A000881F91505040A9F79E3F510580F00C9401
:1054B0006C290C94F6295F3FE4F3983ED4F386956B
:1054C00077956795B795F795E7959F5FC1F7FE2BA1
:1054D000880F911D9695879597F908950E94DB296D
:1054E000E8F09E37E8F09639B8F49E3848F4672F14
:1054F000782F8827985FF9CF86957795679593954C
:105500009539D0F3B62FB1706B0F711D811D20F44A
:1055100087957795679593950C94E02A0C94FB2AD0
:105520000C94F6299F930E9485290F9007FCEE5F4B
:105530000C94BF2919F416F40C9472290C94FB2ACC
:105540000E94DB29B8F39923C9F3B6F39F57550B93
:1055500087FF0E94092B0024A0E640EA90018058B2
:105560005695979528F4805C660F771F881F20F06A
:1055700026173707480730F4621B730B840B20296A
:1055800031294A2BA69517940794202531254A27BF
:1055900058F7660F771F881F20F026173707480730
:1055A00030F4620B730B840B200D311D411DA0954F
:1055B00081F7B901842F9158880F969587950895A2
:1055C000882371F4772321F09850872B762F07C01A
:1055D000662311F499270DC09051862B70E060E08E
:1055E0002AF09A95660F771F881FDAF7880F96952D
:1055F000879597F908959F3F31F0915020F4879552
:1056000077956795B795880F911D9695879597F92A
:10561000089591505040660F771F881FD2F7089564
:105620009F938F937F936F93FF93EF939B01AC01B5
:105630000E94012AEF91FF910E94242B2F913F910C
:105640004F915F910C94012ADF93CF931F930F9397
:10565000FF92EF92DF927B018C01689406C0DA2EF4
:10566000EF010E94142AFE01E894A591259135913D
:1056700045915591A6F3EF010E940428FE01970180
:10568000A801DA9469F7DF90EF90FF900F911F91D6
:10569000CF91DF91089597FB072E16F4009407D061
:1056A00077FD09D00E949C2B07FC05D03EF4909515
:1056B00081959F4F0895709561957F4F0895EE0FE6
:1056C000FF1F0590F491E02D09942F923F924F9285
:1056D0005F926F927F928F929F92AF92BF92CF9282
:1056E000DF92EF92FF920F931F93CF93DF93CDB78B
:1056F000DEB7CA1BDB0B0FB6F894DEBF0FBECDBF03
:1057000009942A88398848885F846E847D848C84D3
:105710009B84AA84B984C884DF80EE80FD800C81DC
:105720001B81AA81B981CE0FD11D0FB6F894DEBFBF
:105730000FBECDBFED010895AA1BBB1B51E107C0F1
:10574000AA1FBB1FA617B70710F0A61BB70B881F11
:10575000991F5A95A9F780959095BC01CD010895A0
:105760008F929F92AF92BF92CF92DF92EF92FF9271
:10577000CF93DF93EC01688179818A819B816115E8
:1057800071058105910521F464E279ED8BE597E0DF
:105790002DE133EF41E050E00E94DB2D49015A0139
:1057A0009B01AC01A7EAB1E40E94FA2D6B017C01D8
:1057B000ACEEB4EFA50194010E94082EDC01CB01F0
:1057C0008C0D9D1DAE1DBF1DB7FF03C00197A10924
:1057D000B04888839983AA83BB839F77DF91CF9159
:1057E000FF90EF90DF90CF90BF90AF909F908F9001
:1057F00008950E94B02B089587EB91E00E94B02B92
:105800000895B0E0A0E08093B7019093B801A09311
:10581000B901B093BA010895283008F027E0332782
:10582000DA01990F311D87FD9160009661057105C0
:1058300039F432602E5F3D9330E32A95E1F7089505
:105840009F3F30F080387105610509F03C5F3C5F97
:105850003D93913008F08068911DDF93CF931F93A3
:105860000F93FF92EF92192F987F9695E92F9695B7
:105870009695E90FFF27E45DFE4F99273327EE2425
:10588000FF24A701E70105900894079428F4360F38
:10589000E71EF81E491F511D660F771F881F991FAD
:1058A0000694A1F70590079428F4E70EF81E491F07
:1058B000561FC11D770F881F991F661F0694A1F7F9
:1058C0000590079428F4F80E491F561FC71FD11DD5
:1058D000880F991F661F771F0694A1F705900794FC
:1058E00020F4490F561FC71FD81F990F661F771F37
:1058F000881F0694A9F784911095177041F0D695EA
:10590000C79557954795F794E7941A95C1F7E2ED37
:10591000F0E06894159015913591659195910590F9
:105920007FE27395E118F10A430B560BC90BD009BE
:10593000C0F7E10CF11E431F561FC91FD01D7EF496
:10594000703311F48A95E6CFE894015030F0080FD7
:105950000AF40027021708F4202F2395022F7A3328
:1059600028F079E37D932A95E9F710C07D932A9575
:1059700089F6069497956795379517951794E118CA
:10598000F10A430B560BC90BD00998F023957E9171
:1059900073957A3308F070E37C932013B8F77E9107
:1059A00070617D9330F0839571E37D9370E32A9568
:1059B000E1F71124EF90FF900F911F91CF91DF91AC
:1059C000992787FD90950895FC01059061507040DE
:1059D0000110D8F7809590958E0F9F1F0895FC01B8
:1059E0006150704001900110D8F7809590958E0F0E
:1059F0009F1F08950F931F93CF93DF93182F092FA5
:105A0000EB018B8181FD09C01FEF0FEF812F902FDC
:105A1000DF91CF911F910F91089582FF14C02E81C5
:105A20003F818C819D81281739073CF4E881F981F9
:105A3000CF0101969983888310838E819F8101967F
:105A40009F838E83E3CFE885F985812F0995892B84
:105A5000A1F3DACFAEE0B0E0E0E3FDE20C94732B0B
:105A60000D891E898F89988D26E02C831A830983DE
:105A700097FF02C080E090E801979E838D83AE017E
:105A8000455E5F4F698D7A8DCE0101960E948B2411
:105A90004D815E8157FD0AC02F813885421753071B
:105AA0000CF49A01020F131FF80110822E96E4E005
:105AB0000C948F2BAEE0B0E0E0E6FDE20C94732B8B
:105AC0000D891E8986E08C831A8309838FEF9FE7F7
:105AD0009E838D83AE01475E5F4F6F89788DCE01C7
