:100000000C947C020C9499020C9499020C94990221
:100010000C9499020C9499020C9499020C949902F4
:100020000C9499020C9499020C94FC200C943721A6
:100030000C9499020C9499020C9499020C949902D4
:100040000C9499020C9499020C9499020C949902C4
:100050000C9499020C9499020C9499020C949902B4
:100060000C9499020C9499020C9499020C949902A4
:100070000C9499020C9499020C9499020C94990294
:100080000C9499020C9499020C9499020C946C159E
:100090000C9499020C9499020C9499020C94990274
:1000A0000C9499020C9499020C94990291208E2040
:1000B0008B208820852082207F207C20792076203C
:1000C000732070206D206A206720642061205E20EC
:1000D0005B205820552052204F204C20492046209C
:1000E000432040203D203A203720342031202E204C
:1000F0002B202820252022201F201C2019201620FC
:10010000132010200D200A20072004200120FE1FAC
:10011000FB1FF81FF51FF21FEF1FEC1FE91FE61F63
:10012000E31FE01FDD1FDA1FD71FD41FD11F05A853
:100130004CCDB2D44EB93836A9020C50B99186884C
:10014000083CA6AAAA2ABE000000803F00010000C9
:100150008001120002000092014300030000D5015B
:100160000401030904D9011402030904EF01160371
:1001700003090407020C0001C11201803601813617
:100180001201000202000010C0167A0400010102F0
:10019000030109024300020100C03209040000010A
:1001A00002020100052400100105240101010424BC
:1001B0000206052406000107058203100040090419
:1001C0000100020A000000070503024000000705C5
:1001D000840240000004030904140359006F0075F1
:1001E00000720020004E0061006D006500000016E6
:1001F000035500530042002000530065007200695F
:100200000061006C0000000C033100320033003448
:1002100000350000006E616E00696E66000000002F
:10022000000000005F00000007000700147F147F3B
:1002300014242A7F2A122313086462364955225057
:100240000005030000001C2241000041221C001494
:10025000083E081408083E0808005030000008084E
:10026000080808006060000020100804023E5149A0
:10027000453E00427F400042615149462141454B85
:10028000311814127F1027454545393C4A494930F9
:1002900001710905033649494936064949291E00B5
:1002A00036360000005636000008142241001414AF
:1002B000141414004122140802015109063249792C
:1002C000413E7E1111117E7F494949363E414141EF
:1002D000227F4141221C7F494949417F0909090187
:1002E0003E4149497A7F0808087F00417F4100204C
:1002F00040413F017F081422417F404040407F023F
:100300000C027F7F0408107F3E4141413E7F090976
:1003100009063E4151215E7F09192946464949494E
:100320003101017F01013F4040403F1F2040201F1D
:100330003F4038403F6314081463070870080761A2
:1003400051494543007F414100020408102000410B
:10035000417F00040201020440404040400001028D
:10036000040020545454787F48444438384444446A
:1003700020384444487F3854545418087E090102F8
:100380000C5252523E7F0804047800447D40002005
:1003900040443D007F1028440000417F40007C0421
:1003A0001804787C0804047838444444387C1414D5
:1003B0001408081414187C7C080404084854545485
:1003C00020043F4440203C4040207C1C2040201C16
:1003D0003C4030403C44281028440C5050503C4491
:1003E00064544C44000836410000007F0000004186
:1003F0003608001008081008784641467800407A10
:1004000010F35A00A0724E18090010A5D4E800009D
:10041000E87648170000E40B54020000CA9A3B003B
:100420000000E1F505000080969800000040420FB2
:10043000000000A08601000000102700000000E876
:1004400003000000006400000000000A000000003B
:10045000000100000000002C76D888DC674F0823DC
:10046000DFC1DFAE59E1B1B796E5E3E453C63AE642
:1004700051997696E8E6C28426EB898C9B62ED4022
:100480007C6FFCEFBC9C9F40F2BAA56FA5F4900571
:100490005A2AF75C936B6CF9676DC11BFCE0E40DA5
:1004A00047FEF520E6B500D0ED902E030094357799
:1004B000050080841E080000204E0A000000C80CC1
:1004C000333333330F986E12831141EF8D2114892A
:1004D0003BE65516CFFEE6DB18D1844B381BF77C84
:1004E0001D901DA4BBE424203284725E228100C9C9
:1004F000F124ECA1E53D270011241FBECFEFDAE087
:10050000DEBFCDBF13E0A0E0B1E0E6E1FFE502C051
:1005100005900D92A039B107D9F717E0A0E9B3E033
:1005200001C01D92A031B107E1F70E948B1E0C940F
:10053000892F0C940000859886982198509851989E
:1005400027982098229A239A08951092900083E089
:100550008093910081E08093710078940895AF9228
:10056000BF92CF92DF92EF92FF920F931F93609111
:10057000AB037091AC03E0909400F0909500882755
:1005800077FD8095982F0E94832A20E030E040E894
:1005900057E40E94702B5B016C0100E010E0C80181
:1005A000B7010E94812A9B01AC01C601B5010E94DE
:1005B0007D2920E030E040E852E40E94702B20E0EA
:1005C00034E244EF5AE40E94E8290E94502A7093D2
:1005D0009703609396036C33710589F480919803B7
:1005E00090919903019690939903809398031092A8
:1005F0009703109296031092AC031092AB03609194
:10060000AD037091AE03E0909400F09095008827C0
:1006100077FD8095982F0E94832A20E030E040E803
:1006200057E40E94702B5B016C0100E010E0C801F0
:10063000B7010E94812A9B01AC01C601B5010E944D
:100640007D2920E030E040E852E40E94702B20E059
:1006500034E244EF5AE40E94E8290E94502A709341
:100660009B0360939A036C3371058CF080919C031B
:1006700090919D03019690939D0380939C0310920B
:100680009B0310929A031092AE031092AD031F9138
:100690000F91FF90EF90DF90CF90BF90AF900895B3
:1006A0004F925F926F927F928F929F92AF92BF9282
:1006B000CF92DF92EF92FF920F931F93CF93DF932E
:1006C00089B1869580FF2CC08091E002882341F19A
:1006D000E090AF03F090B0030091B1031091B2032A
:1006E000C801B70120E030E04CE052E40E94E1296B
:1006F00018160CF44AC080E090E0A0E0BFE38093BD
:10070000B9039093BA03A093BB03B093BC03C80191
:10071000B70120E030E040E05FE30E947D292CC07B
:100720001F9B38C08091E1028823A1F1E090AF03C4
:10073000F090B0030091B1031091B203C801B7016A
:1007400020E030E040ED51EC0E946C2B1816ECF4E8
:1007500080E090E0A0E0BFEB8093B9039093BA03F0
:10076000A093BB03B093BC03C801B70120E030E005
:1007700040E05FE30E947C296093AF037093B00375
:100780008093B1039093B2038BC080E090E0A0E02F
:10079000B0E07EC083B1869580FF2CC08091DE02E0
:1007A000882341F1E090E402F090E5020091E60236
:1007B0001091E702C801B70120E030E048E652E4BA
:1007C0000E94E12988230CF04AC0C801B70120E04B
:1007D00030E040E05FE30E947D296093E402709383
:1007E000E5028093E6029093E70280E090E0A0E0CB
:1007F000BFE339C0489B40C08091DF028823E1F10C
:10080000E090E402F090E5020091E6021091E70228
:10081000C801B70120E030E048E752EC0E946C2BA1
:100820001816ECF480E090E0A0E0BFEB8093B503F5
:100830009093B603A093B703B093B803C801B70170
:1008400020E030E040E05FE30E947C296093E40216
:100850007093E5028093E6029093E70221C080E066
:1008600090E0A0E0B0E08093B5039093B603A0932E
:10087000B703B093B80314C080E090E0A0E0B0E00C
:100880008093B5039093B603A093B703B093B803D6
:100890008093B9039093BA03A093BB03B093BC03B6
:1008A00080919E03882309F046C02091B5033091C2
:1008B000B6034091B7035091B8032093C804309316
:1008C000C9044093CA045093CB04E090B903F0905C
:1008D000BA030091BB031091BC03E092CC04F092E8
:1008E000CD040093CE041093CF046091C0047091A6
:1008F000C1048091C2049091C3040E947D29609339
:10090000C0047093C1048093C2049093C3046091A7
:10091000C4047091C5048091C6049091C704A801D5
:1009200097010E947D296093C4047093C50480934D
:10093000C6049093C704E090B503F090B60300910D
:10094000B7031091B803E0925E04F0925F04009345
:10095000600410936104A090B903B090BA03C090F2
:10096000BB03D090BC03A0926204B0926304C09217
:100970006404D0926504609156047091570480918C
:10098000580490915904A80197010E947D29609311
:1009900056047093570480935804909359046091BF
:1009A0005A0470915B0480915C0490915D04A601EF
:1009B00095010E947D2960935A0470935B04809393
:1009C0005C0490935D04E092F204F092F3040093CF
:1009D000F4041093F504A092F604B092F704C092C8
:1009E000F804D092F9046091EA047091EB048091CC
:1009F000EC049091ED04A80197010E947D29609379
:100A0000EA047093EB048093EC049093ED046091FE
:100A1000EE047091EF048091F0049091F104A6012E
:100A200095010E947D296093EE047093EF048093FA
:100A3000F0049093F104E092DE03F092DF03009360
:100A4000E0031093E103A092E203B092E303C092AB
:100A5000E403D092E5036091D6037091D7038091AF
:100A6000D8039091D903A80197010E947D29609332
:100A7000D6037093D7038093D8039093D9036091E2
:100A8000DA037091DB038091DC039091DD03A60112
:100A900095010E947D296093DA037093DB038093B4
:100AA000DC039093DD03609094037090950382E0E3
:100AB0006816710421F48091BD04882349F44090A4
:100AC0006D0450906E04CDEED3E08824992464C068
:100AD000E092B304F092B4040093B5041093B6040A
:100AE000A092B704B092B804C092B904D092BA04EC
:100AF0006091AB047091AC048091AD049091AE0410
:100B0000A80197010E947D296093AB047093AC0407
:100B10008093AD049093AE046091AF047091B004E3
:100B20008091B1049091B204A60195010E947D29A3
:100B30006093AF047093B0048093B1049093B204B7
:100B4000BECF82E0681671041CF18A89882301F106
:100B5000E886F9860A871B87AC86BD86CE86DF8647
:100B6000688179818A819B81A80197010E947D29F2
:100B7000688379838A839B836C817D818E819F8149
:100B8000A60195010E947D296C837D838E839F83BE
:100B90000894811C911C65968414950494F28091AC
:100BA0009F03882309F040C082E068167104E4F1D5
:100BB0008091E7048823C1F1E092DD04F092DE0425
:100BC0000093DF041093E004A092E104B092E204E9
:100BD000C092E304D092E4046091D5047091D604ED
:100BE0008091D7049091D804A80197010E947D2993
:100BF0006093D5047093D6048093D7049093D8045F
:100C00006091D9047091DA048091DB049091DC0446
:100C1000A60195010E947D296093D9047093DA049E
:100C20008093DB049093DC048091A0038823E1F59A
:100C300083E068167104C4F1E092C903F092CA031C
:100C40000093CB031093CC03A092CD03B092CE03BC
:100C5000C092CF03D092D0036091C1037091C203C0
:100C60008091C3039091C403A80197010E947D293C
:100C70006093C1037093C2038093C3039093C40332
:100C80006091C5037091C6038091C7039091C8031A
:100C9000A60195010E947D296093C5037093C60348
:100CA0008093C7039093C8038091A103882309F020
:100CB00040C082E068167104E4F180911105882338
:100CC000C1F1E0920705F092080500930905109321
:100CD0000A05A0920B05B0920C05C0920D05D092AA
:100CE0000E056091FF0470910005809101059091BF
:100CF0000205A80197010E947D296093FF0470936B
:100D000000058093010590930205609103057091A1
:100D100004058091050590910605A60195010E94A4
:100D20007D296093030570930405809305059093D6
:100D30000605DF91CF911F910F91FF90EF90DF900B
:100D4000CF90BF90AF909F908F907F906F905F906B
:100D50004F900895FC012481358146815781B90166
:100D6000CA010895FC012081318142815381B9017A
:100D7000CA0108950F931F93FC014083518362833E
:100D8000738304831583268337831F910F910895FE
:100D900080917A00806480937A0080917A0086FD49
:100DA000FCCF609178007091790080E090E00E9423
:100DB000812A20E030EC4FE754E40E94E8292BED33
:100DC0003FE049E450E40E94702B20E030E040E82E
:100DD00050E40E94702B08952F923F924F925F92A1
:100DE0006F927F928F929F92AF92BF92CF92DF923B
:100DF000EF92FF920F931F93CF93DF935C014B0110
:100E00003A01690128011701FC0160817181828129
:100E100093810E94D32B0E94502A7B01F5016481AB
:100E20007581868197810E94D32B0E94502A8B0165
:100E3000F40160817181828193810E94D32B0E9491
:100E4000502AEB01F40164817581868197810E94AB
:100E5000D32B0E94502AC00ED11E6C157D0514F0B4
:100E600080E007C080E06E0C7F1CC615D7050CF42F
:100E700081E0C40DD51DEC16FD060CF080E0620D7E
:100E8000731D061717070CF080E0DF91CF911F91BB
:100E90000F91FF90EF90DF90CF90BF90AF909F9019
:100EA0008F907F906F905F904F903F902F9008951C
:100EB0006F927F928F929F92AF92BF92CF92DF926A
:100EC000EF92FF920F931F93DF93CF93CDB7DEB7CF
:100ED0006EA07FA088A499A48DEEC82E83E0D82EA2
:100EE000AA24BB2416C0F60140892189C601BE018F
:100EF0006F5E7F4F50E030E0830174010E94EC068A
:100F000025E130E0C20ED31E882359F40894A11CB9
:100F1000B11C80916D0490916E04A816B9061CF363
:100F200080E0CF91DF911F910F91FF90EF90DF90C4
:100F3000CF90BF90AF909F908F907F906F900895CB
:100F4000EF92FF920F931F93CF93DF9380919403BF
:100F500090919503181619060CF0F4C08091900337
:100F6000882309F0EFC06091E4027091E50280915E
:100F7000E6029091E70220E030E048EA51E40E9466
:100F80006C2B18165CF5C0E0D0E009C08C2F60E037
:100F90004C2F20E301E010E00E9464262196BE0160
:100FA000882777FD8095982F0E94832A7B018C01EA
:100FB0006091E4027091E5028091E6029091E7026F
:100FC00020E030E048EA51E40E947C299B01AC011A
:100FD000C801B7010E94E12987FDD8CF6091E402E2
:100FE0007091E5028091E6029091E70220E030E006
:100FF00048EA51EC0E94E129882364F5C0E0D0E082
:101000000AC0CE018C5A482F60E020E301E010E0D6
:101010000E9464262197BE01882777FD8095982F2E
:101020000E94832A7B018C016091E4027091E502A9
:101030008091E6029091E70220E030E048EA51E436
:101040000E947D299B01AC01C801B7010E946C2B55
:101050001816BCF26091AF037091B0038091B10398
:101060009091B20320E030E040E451EC0E94E1298D
:1010700088236CF5C0E0D0E00BC0CE01805D282F46
:1010800080E0622F44E501E010E00E946426219791
:10109000BE01882777FD8095982F0E94832A7B01C7
:1010A0008C016091AF037091B0038091B103909176
:1010B000B20320E030E040E451E40E947D299B012E
:1010C000AC01C801B7010E946C2B1816B4F26091F4
:1010D000AF037091B0038091B1039091B20320E00F
:1010E00030E040E451E40E946C2B18165CF5C0E03F
:1010F000D0E009C080E06C2F44E52C2F01E010E027
:101100000E9464262196BE01882777FD8095982F3E
:101110000E94832A7B018C016091AF037091B00320
:101120008091B1039091B20320E030E040E451E4BB
:101130000E947C299B01AC01C801B7010E94E129F2
:1011400087FDD8CFDF91CF911F910F91FF90EF9046
:1011500008958091D9028823A1F04091CC0250914A
:10116000CD028AE067E021E030E00E94082840914B
:10117000D7025091D80281E161E121E030E00E9484
:1011800008280895DC010D900020E9F71197A81BAD
:10119000B90BBD010E94831F08958FE30E945C2854
:1011A0008AE06AE040E051E021E030E00E94082857
:1011B0000E9428280E94B21E0E94CB1E8823E1F3C1
:1011C0000E9429268AE06AE04FE051E021E030E009
:1011D0000E9408288DE191E00E94C20889E291E016
:1011E0000E94C2080E9428280895AF92BF92CF9211
:1011F000EF920F931F9380E88093610011E01093AA
:1012000061008FE30E945C2880B38C7980BB1092D0
:101210007C0080917C00806480937C0080917C00C5
:10122000816080937C0080917A00806880937A004E
:1012300080917A00846080937A0080917A00826045
:1012400080937A0080917A00816080937A00109276
:10125000900083E0809391001093710078940E9435
:101260009B0210929703109296031092990310928A
:1012700098031092AC031092AB038FE694E040E029
:1012800050E064E172E400E010E020EC31E4F7E0CB
:10129000EF2EEBE0CE2EB8EEAB2EB2E0BB2E0E94CE
:1012A000AA2880EC94E040E050E060E271E400E0C5
:1012B00010E020EC31E4A3E0CA2EF1E6AF2EF3E01B
:1012C000BF2E0E94AA2886E594E040E050E060EA44
:1012D00071E400E010E020E030E0E8E2EE2EB6E15C
:1012E000CB2EA3EFAA2EA2E0BA2E0E94AA288AEE45
:1012F00094E040E050E060E172E400E010E020E4BF
:1013000031E4F8E0EF2EEAE0CE2EB4E6AB2EB3E007
:10131000BB2E0E94AA2886ED93E040E050E06CE8E6
:1013200072E400E010E020EC31E4A5E0EA2EF6E003
:10133000CF2EEEE6AE2EE3E0BE2E0E94AA288091CC
:10134000B3039091B403892B11F40E94CD080E943D
:1013500029260E9428281F910F91EF90CF90BF90CF
:10136000AF9008952F923F924F925F926F927F922B
:101370008F929F92AF92BF92CF92DF92EF92FF92A5
:101380000F931F93DF93CF93CDB7DEB728970FB698
:10139000F894DEBF0FBECDBF80919003882309F083
:1013A00031C18091A303882309F42CC18091A50346
:1013B000882309F027C18091D6039091D703A0918B
:1013C000D803B091D9038D839E83AF83B887609093
:1013D0006F04709070048090710490907204BC014E
:1013E000CD01A40193010E947C2920E030E04CE370
:1013F00052E40E946C2B18160CF456C0C401B301C1
:101400002D813E814F8158850E947C297B018C0172
:101410006091E60370E06B5D7F4F882777FD8095D4
:10142000982F0E94832A9B01AC01C801B7010E943A
:101430006C2B1816CCF1A090DA03B090DB03C090AF
:10144000DC03D090DD03E0907304F090740400910D
:10145000750410917604C601B501A80197010E9498
:101460007C2920E030E040EC51E40E946C2B1816FF
:10147000DCF0C801B701A60195010E947C297B011F
:101480008C016091E70370E0685E7F4F882777FDED
:101490008095982F0E94832A9B01AC01C801B70157
:1014A0000E946C2B18163CF41092A80480E090E087
:1014B000A0E0B0E007C081E08093A80480E090E065
:1014C000A0E0BEE389839A83AB83BC83C401B301EC
:1014D0000E94D32B7B018C016D817E818F81988549
:1014E0000E94D32B9B01AC01C801B7010E947C294B
:1014F0003B014C01609173047091740480917504F8
:10150000909176040E94D32B7B018C012090DA030A
:101510003090DB034090DC035090DD03C201B10149
:101520000E94D32B9B01AC01C801B7010E947C290A
:101530005B016C01C401B301A40193010E94702BF3
:101540007B018C01C601B501A60195010E94702B9B
:101550009B01AC01C801B7010E947D292FEF36EE37
:101560004BED5EE20E947D290E94FD2B7B018C01E8
:10157000C401B30129813A814B815C810E94702BA7
:10158000A80197010E94E8293B014C01C601B50161
:1015900029813A814B815C810E94702BA8019701BF
:1015A0000E94E8297B018C016092DE037092DF03C8
:1015B0008092E0039092E1036093E2037093E3036F
:1015C0008093E4039093E5036D817E818F819885FC
:1015D000A40193010E947D296093D6037093D703E1
:1015E0008093D8039093D903C201B101A801970158
:1015F0000E947D296093DA037093DB038093DC0300
:101600009093DD0328960FB6F894DEBF0FBECDBFD2
:10161000CF91DF911F910F91FF90EF90DF90CF90CE
:10162000BF90AF909F908F907F906F905F904F9002
:101630003F902F9008954F925F926F927F928F927A
:101640009F92AF92BF92CF92DF92EF92FF920F9351
:101650001F93DF93CF93CDB7DEB765970FB6F8949E
:10166000DEBF0FBECDBF80E090E0A0E0B0E0809391
:10167000AF039093B003A093B103B093B20380E0A3
:1016800090E0A0EAB1E48093E4029093E502A09395
:10169000E602B093E70281E08093A5038091940372
:1016A00090919503019690939503809394031092E3
:1016B0009E038091A003882311F41092A8038091C7
:1016C000A103882311F41092A903809192039091B1
:1016D00093038C599F4F90939303809392030E949E
:1016E000502D8C010E94502D5C01C80165E570E011
:1016F0000E94A12CAA2797FDA095BA2FBC01CD016D
:101700000E94832A6B017C01C50161E370E00E94A5
:10171000A12CAA2797FDA095BA2FBC01CD010E944C
:10172000832A8B019C018AEE94E0B701A601F8E0C0
:10173000EF2EEAE0CE2EB4E6AB2EB3E0BB2E0E9435
:10174000AA284091FA042091FB0400917F04E090C4
:1017500080048AEE94E06FE674E050E030E010E040
:10176000FF240E94EC06882309F0B9CF0E94502D77
:101770008C010E94502D5C01C80165E570E00E945B
:10178000A12CAA2797FDA095BA2FBC01CD010E94DC
:10179000832A6B017C01C50161E370E00E94A12CEA
:1017A000AA2797FDA095BA2FBC01CD010E94832ADC
:1017B0008B019C0180EC94E0B701A601A7E0EA2E22
:1017C000F3E0CF2EE1E6AE2EE3E0BE2E0E94AA2883
:1017D0004091D0042091D1040091FA04E090FB04E0
:1017E00080EC94E06AEE74E050E030E010E0FF241A
:1017F0000E94EC06882309F0B9CF4091D0042091D3
:10180000D10400917F04E090800480EC94E06FE6C6
:1018100074E050E030E00E94EC06882309F0A6CF87
:10182000809194039091950302970CF47FC086E514
:1018300094E040E050E068EC72EC8A019B01B8E271
:10184000EB2EA6E1CA2EF3EFAF2EF2E0BF2E0E94E0
:10185000AA280E94502D8C010E94502D5C01C801C5
:1018600065E570E00E94A12CAA2797FDA095BA2FEC
:10187000BC01CD010E94832A6B017C01C50161E39B
:1018800070E00E94A12CAA2797FDA095BA2FBC0159
:10189000CD010E94832A8B019C0186ED93E0B70164
:1018A000A601E090E603C090E703EEE6AE2EE3E08B
:1018B000BE2E0E94AA284091E6032091E7030091E2
:1018C000FA04E090FB0486ED93E06AEE74E050E0E9
:1018D00030E010E0FF240E94EC06882309F0B9CF25
:1018E0004091E6032091E7030091D004E090D104F9
:1018F00086ED93E060EC74E050E030E00E94EC068E
:10190000882309F0A6CF4091E6032091E7030091D8
:101910007F04E090800486ED93E06FE674E050E091
:1019200030E00E94EC06882309F093CF8091940365
:10193000909195038230910509F081C00E94502D4D
:101940008C010E94502D5C01C80165E570E00E9489
:10195000A12CAA2797FDA095BA2FBC01CD010E940A
:10196000832A6B017C01C50161E370E00E94A12C18
:10197000AA2797FDA095BA2FBC01CD010E94832A0A
:101980008B019C018BEA94E0B701A601B5E0EB2E38
:10199000A3E0CA2EF4E7AF2EF3E0BF2E0E94AA28E0
:1019A0004091BB042091BC040091FA04E090FB0438
:1019B0008BEA94E06AEE74E050E030E010E0FF243F
:1019C0000E94EC06882309F0B9CF4091BB04209116
:1019D000BC040091D004E090D1048BEA94E060EC68
:1019E00074E050E030E00E94EC06882309F0A6CFB6
:1019F0004091BB042091BC0400917F04E0908004DE
:101A00008BEA94E06FE674E050E030E00E94EC0670
:101A1000882309F093CF4091BB042091BC0400912E
:101A2000E603E090E7038BEA94E066ED73E050E0B4
:101A300030E00E94EC06882309F080CF72C3039740
:101A40000CF46FC38091A703882309F09FC00E9404
:101A5000502D6AE070E00E94A12C03970CF096C014
:101A600081E08093A7030E94502D8C010E94502D8D
:101A70005C01C80165E570E00E94A12CAA2797FDD2
:101A8000A095BA2FBC01CD010E94832A6B017C0175
:101A9000C50161E370E00E94A12CAA2797FDA095E3
:101AA000BA2FBC01CD010E94832A8B019C0185EDD8
:101AB00094E0B701A601E7E0EE2EB4E0CB2EA7E755
:101AC000AA2EA3E0BA2E0E94AA284091E5042091F4
:101AD000E60400917F04E090800485ED94E06FE6D9
:101AE00074E050E030E010E0FF240E94EC06882310
:101AF00009F0B9CF4091E5042091E6040091FA0481
:101B0000E090FB0485ED94E06AEE74E050E030E094
:101B10000E94EC06882309F0A6CF4091E5042091AD
:101B2000E6040091D004E090D10485ED94E060ECEF
:101B300074E050E030E00E94EC06882309F093CF77
:101B40004091E5042091E6040091BB04E090BC04C0
:101B500085ED94E06BEA74E050E030E00E94EC0622
:101B6000882309F080CF4091E5042091E60400919C
:101B7000E603E090E70385ED94E066ED73E050E066
:101B800030E00E94EC06882309F06DCF8091A80315
:101B9000882309F09FC00E94502D6AE070E00E94E7
:101BA000A12C03970CF096C081E08093A8030E94BB
:101BB000502D8C010E94502D5C01C80165E570E03C
:101BC0000E94A12CAA2797FDA095BA2FBC01CD0198
:101BD0000E94832A6B017C01C50161E370E00E94D1
:101BE000A12CAA2797FDA095BA2FBC01CD010E9478
:101BF000832A8B019C0181EC93E0B701A601F3E0FD
:101C0000EF2EE5E0CE2EBBE7AB2EB3E0BB2E0E945D
:101C1000AA284091D1032091D20300917F04E09043
:101C2000800481EC93E06FE674E050E030E010E077
:101C3000FF240E94EC06882309F0B9CF4091D1031C
:101C40002091D2030091FA04E090FB0481EC93E030
:101C50006AEE74E050E030E00E94EC06882309F060
:101C6000A6CF4091D1032091D2030091D004E090FF
:101C7000D10481EC93E060EC74E050E030E00E942D
:101C8000EC06882309F093CF4091D1032091D20331
:101C90000091E504E090E60481EC93E065ED74E0EA
:101CA00050E030E00E94EC06882309F080CF40919C
:101CB000D1032091D2030091E603E090E70381EC89
:101CC00093E066ED73E050E030E00E94EC0688237C
:101CD00009F06DCF8091A903882309F0B2C00E945A
:101CE000502D6AE070E00E94A12C0B970CF0A9C067
:101CF00081E08093A9030E94502D8C010E94502DF9
:101D00005C01C80165E570E00E94A12CAA2797FD3F
:101D1000A095BA2FBC01CD010E94832A6B017C01E2
:101D2000C50161E370E00E94A12CAA2797FDA09550
:101D3000BA2FBC01CD010E94832A8B019C018FEF39
:101D400094E0B701A601A7E0EA2EF5E0CF2EE0E887
:101D5000AE2EE3E0BE2E0E94AA2840910F052091EE
:101D6000100500917F04E09080048FEF94E06FE60F
:101D700074E050E030E010E0FF240E94EC0688237D
:101D800009F0B9CF40910F05209110050091FA0498
:101D9000E090FB048FEF94E06AEE74E050E030E0F6
:101DA0000E94EC06882309F0A6CF40910F052091F0
:101DB00010050091D004E090D1048FEF94E060EC26
:101DC00074E050E030E00E94EC06882309F093CFE5
:101DD00040910F05209110050091E504E090E60484
:101DE0008FEF94E065ED74E050E030E00E94EC0687
:101DF000882309F080CF40910F05209110050091B4
:101E0000E603E090E7038FEF94E066ED73E050E0C7
:101E100030E00E94EC06882309F06DCF40910F0559
:101E2000209110050091D103E090D2038FEF94E050
:101E300061EC73E050E030E00E94EC06882309F08A
:101E40005ACF0E94502D66E070E00E94A12C909322
:101E50006E0480936D04882499243E010894611CCB
:101E6000711CB5E14B2E512C46C00E94502D8C01A7
:101E70000E94502D5C01C80165E570E00E94A12C14
:101E8000AA2797FDA095BA2FBC01CD010E94832AF5
:101E90006B017C01C50161E370E00E94A12CAA27BF
:101EA00097FDA095BA2FBC01CD010E94832A8B011A
:101EB0009C01C301B701A601E090BB04C090BC0423
:101EC000A4E7AA2EA3E0BA2E0E94AA28849CF001BF
:101ED000859CF00D949CF00D1124E351FC4FD3012F
:101EE00085E10D9001928150E1F70894811C911CCD
:101EF00002C08824992480916D0490916E04881604
:101F000099060CF4B2CF2DB73EB7295130400FB629
:101F1000F8943EBF0FBE2DBFEDB7FEB731969F01BF
:101F20004FEF54E085E1DA010D90AD01D9010D923A
:101F30009D018150C1F780910F05858B168A809194
:101F40001005878B108E0E9458072DB73EB7275E6D
:101F50003F4F0FB6F8943EBF0FBE2DBF882349F602
:101F60008DB79EB749970FB6F8949EBF0FBE8DBF31
:101F7000EDB7FEB731969F014FE654E085E1DA01F7
:101F80000D90AD01D9010D929D018150C1F7809155
:101F90007F04858B168A80918004878B108E0E9427
:101FA00058072DB73EB7275E3F4F0FB6F8943EBF98
:101FB0000FBE2DBF882309F09CCF8DB79EB74997E0
:101FC0000FB6F8949EBF0FBE8DBFEDB7FEB731962A
:101FD0009F0140EC54E085E1DA010D90AD01D9019B
:101FE0000D929D018150C1F78091D004858B168A96
:101FF0008091D104878B108E0E9458072DB73EB771
:10200000275E3F4F0FB6F8943EBF0FBE2DBF88230B
:1020100009F06FCF8DB79EB749970FB6F8949EBF62
:102020000FBE8DBFEDB7FEB731969F0146ED53E071
:1020300085E1DA010D90AD01D9010D929D0181502C
:10204000C1F78091E603858B168A8091E703878B21
:10205000108E0E9458072DB73EB7275E3F4F0FB630
:10206000F8943EBF0FBE2DBF882309F042CF8DB735
:102070009EB749970FB6F8949EBF0FBE8DBFEDB7C0
:10208000FEB731969F0141EC53E085E1DA010D90F6
:10209000AD01D9010D929D018150C1F78091D1030D
:1020A000858B168A8091D203878B108E0E945807E9
:1020B0002DB73EB7275E3F4F0FB6F8943EBF0FBE19
:1020C0002DBF882309F015CF8DB79EB749970FB65E
:1020D000F8949EBF0FBE8DBFEDB7FEB731969F013E
:1020E0004AEE54E085E1DA010D90AD01D9010D927F
:1020F0009D018150C1F78091FA04858B168A8091E9
:10210000FB04878B108E0E9458072DB73EB7275EC1
:102110003F4F0FB6F8943EBF0FBE2DBF882309F086
:10212000E8CE65960FB6F894DEBF0FBECDBFCF9157
:10213000DF911F910F91FF90EF90DF90CF90BF90B4
:10214000AF909F908F907F906F905F904F90089589
:102150002F923F924F925F926F927F928F929F92B7
:10216000AF92BF92CF92DF92EF92FF920F931F93A5
:10217000DF93CF9300D000D0CDB7DEB70E94502DB3
:102180008C010E94502D9C01E0919403F0919503E5
:10219000E130F10509F079C080E090E0A0E0B0E026
:1021A0008093AF039093B003A093B103B093B203B5
:1021B00080E090E0A0EAB1E48093E4029093E5022D
:1021C000A093E602B093E7028FE694E040E050E08F
:1021D00064E172E400E010E020EC31E4B7E0EB2EC3
:1021E000ABE0CA2EF8EEAF2EF2E0BF2E0E94AA2876
:1021F00080EC94E040E050E060E271E400E010E048
:1022000020EC31E4E3E0CE2EB1E6AB2EB3E0BB2E02
:102210000E94AA2886E594E040E050E060EA71E47C
:1022200000E010E020E030E0A8E2EA2EF6E1CF2E58
:10223000E3EFAE2EE2E0BE2E0E94AA288AEE94E0E2
:1022400040E050E060E172E400E010E020E431E4BE
:10225000B8E0EB2EAAE0CA2EF4E6AF2EF3E0BF2ED4
:102260000E94AA2886ED93E040E050E06CE872E41A
:1022700000E010E020EC31E4E5E0EE2EB6E0CB2EFD
:10228000AEE6AA2EA3E0BA2E46C2C80168E270E00C
:102290000E94A12C8C01C90164E170E00E94A12C74
:1022A0009C01E230F10509F0E2C0B901882777FD11
:1022B0008095982F0E94832A1B012C016093AF0305
:1022C0007093B0038093B1039093B203B801882751
:1022D00077FD8095982F0E94832A3B014C016093E3
:1022E000E4027093E5028093E6029093E7028FE6A2
:1022F00094E040E050E064E172E400E010E020ECA3
:1023000031E4F7E0EF2EEBE0CE2EB8EEAB2EB2E0EC
:10231000BB2E0E94AA28C401B3012091C0043091B1
:10232000C1044091C2045091C3040E947D296B01F5
:102330007C01C201B1012091C4043091C5044091D7
:10234000C6045091C7040E947D298B019C0180EC3A
:1023500094E0B701A601A7E0EA2EF3E0CF2EE1E674
:10236000AE2EE3E0BE2E0E94AA28C401B301209144
:10237000EA043091EB044091EC045091ED040E948A
:102380007D296B017C01C201B1012091EE043091E5
:10239000EF044091F0045091F1040E947D298B01DB
:1023A0009C018AEE94E0B701A601B8E0EB2EAAE00A
:1023B000CA2EF4E6AF2EF3E0BF2E0E94AA28C40175
:1023C000B3012091D6033091D7034091D8035091A7
:1023D000D9030E947D296B017C01C201B1012091CA
:1023E000DA033091DB034091DC035091DD030E945E
:1023F0007D298B019C0186ED93E0B701A601E5E004
:10240000EE2EB6E0CB2EAEE6AA2EA3E0BA2E0E94A8
:10241000AA288091BD04882309F47FC1C401B301B7
:102420002091AB043091AC044091AD045091AE04C6
:102430000E947D296B017C01C201B1012091AF0492
:102440003091B0044091B1045091B2040E947D29B2
:102450008B019C018BEA94E0B701A601E090BB04DC
:10246000C090BC04F4E7AF2EF3E0BF2E54C1329706
:102470000CF053C1B901882777FD8095982F0E94F1
:10248000832A1B012C016093AF037093B0038093E8
:10249000B1039093B203B801882777FD8095982FF8
:1024A0000E94832A3B014C016093E4027093E50291
:1024B0008093E6029093E7028FE694E040E050E0DC
:1024C00064E172E400E010E020EC31E4E7E0EE2E9D
:1024D000BBE0CB2EA8EEAA2EA2E0BA2E0E94AA281C
:1024E000C401B3012091C0043091C1044091C204E1
:1024F0005091C3040E947D296B017C01C201B1018E
:102500002091C4043091C5044091C6045091C70481
:102510000E947D298B019C0180EC94E0B701A6010B
:10252000F7E0EF2EE3E0CE2EB1E6AB2EB3E0BB2E0C
:102530000E94AA28C401B3012091EA043091EB045F
:102540004091EC045091ED040E947D296B017C01C7
:10255000C201B1012091EE043091EF044091F004EA
:102560005091F1040E947D298B019C018AEE94E038
:10257000B701A601A8E0EA2EFAE0CF2EE4E6AE2EDF
:10258000E3E0BE2E0E94AA28C401B3012091D60325
:102590003091D7034091D8035091D9030E947D29EF
:1025A0006B017C01C201B1012091DA033091DB03A0
:1025B0004091DC035091DD030E947D298B019C0139
:1025C00086ED93E0B701A601B5E0EB2EA6E0CA2E9A
:1025D000FEE6AF2EF3E0BF2E0E94AA282DEE33E0D8
:1025E0003C832B831A82198233C0EB81FC81828960
:1025F000882319F1C401B3012081318142815381C3
:102600000E947D296B017C01C201B101EB81FC813B
:1026100024813581468157810E947D298B019C014F
:102620008B819C81B701A601FC01E088C188E4E7A9
:10263000AE2EE3E0BE2E0E94AA2829813A812F5FA8
:102640003F4F3A8329838B819C8145969C838B8362
:1026500080916D0490916E04E981FA81E817F90781
:1026600024F28091D303882351F1C401B301209156
:10267000C1033091C2034091C3035091C4030E942F
:102680007D296B017C01C201B1012091C50330910C
:10269000C6034091C7035091C8030E947D298B0156
:1026A0009C0181EC93E0B701A601E090D103C090BA
:1026B000D203BBE7AB2EB3E0BB2E0E94AA288091C9
:1026C0001105882351F1C401B3012091FF04309119
:1026D000000540910105509102050E947D296B0182
:1026E0007C01C201B10120910305309104054091A4
:1026F0000505509106050E947D298B019C018FEFF5
:1027000094E0B701A601E0900F05C0901005A0E885
:10271000AA2EA3E0BA2E0E94AA280F900F900F9025
:102720000F90CF91DF911F910F91FF90EF90DF906D
:10273000CF90BF90AF909F908F907F906F905F9061
:102740004F903F902F9008958091DC029091DD0290
:1027500001979093DD028093DC0210929E03109209
:10276000A0031092A1038CE291E00E94C2080E9493
:10277000A81008950F931F93CF93DF938091940334
:102780009091950381309105C1F480919003882345
:1027900009F07AC08FE694E00E94D22880EC94E0A1
:1027A0000E94D22886E594E00E94D2288AEE94E026
:1027B0000E94D22886ED93E01AC082309105D1F4B0
:1027C00080919003882309F05FC08FE694E00E9417
:1027D000D2288AEE94E00E94D22880EC94E00E94F5
:1027E000D22886ED93E00E94D2288BEA94E00E94E2
:1027F000D2284AC003970CF447C0809190038823E5
:1028000009F042C08FE694E00E94D2288AEE94E05C
:102810000E94D22880EC94E00E94D2288091E803A4
:10282000882321F086ED93E00E94D2288091A703AF
:10283000882341F08091E704882321F085ED94E01E
:102840000E94D2288091A803882321F081EC93E094
:102850000E94D2288091A903882321F08FEF94E071
:102860000E94D2280DEE13E0C0E0D0E006C0C801FF
:102870000E94D22821960B5E1F4F80916D0490918B
:102880006E04C817D9079CF3DF91CF911F910F9168
:1028900008958FB1829586958695837080FD09C0D5
:1028A0008FB182958695877080FD03C0089501964B
:1028B00002C080E090E07E99FACF7D99F8CF0E9427
:1028C000552D81E08093910308950F931F9380917C
:1028D000A303882309F4FDC089E491E00E94C208A3
:1028E00089E291E00E94C20800D000D000D0EDB78C
:1028F000FEB7319608E814E0ADB7BEB712961C9348
:102900000E9311978AE591E09383828380919203DD
:1029100090919303958384830E94AB2E8DB79EB7CD
:1029200006960FB6F8949EBF0FBE8DBFC8010E94D9
:10293000C20889E291E00E94C20800D000D000D015
:10294000EDB7FEB73196ADB7BEB712961C930E9396
:10295000119784E691E09383828380919403909110
:102960009503958384830E94AB2E8DB79EB7069600
:102970000FB6F8949EBF0FBE8DBFC8010E94C2085B
:1029800089E291E00E94C20800D000D000D0EDB7EB
:10299000FEB73196ADB7BEB712961C930E93119742
:1029A0008EE691E0938382838091A6049091A704A0
:1029B000958384830E94AB2E8DB79EB706960FB683
:1029C000F8949EBF0FBE8DBFC8010E94C20889E265
:1029D00091E00E94C20800D000D000D0EDB7FEB751
:1029E0003196ADB7BEB712961C930E93119789E737
:1029F00091E0938382838091EB039091EC03958324
:102A000084830E94AB2E8DB79EB706960FB6F894BE
:102A10009EBF0FBE8DBFC8010E94C20889E291E02F
:102A20000E94C20800D000D000D0EDB7FEB73196AA
:102A3000ADB7BEB712961C930E93119784E891E040
:102A4000938382838091DC029091DD02958384835D
:102A50000E94AB2E8DB79EB706960FB6F8949EBF18
:102A60000FBE8DBFC8010E94C20889E291E00E949A
:102A7000C208ADB7BEB718970FB6F894BEBF0FBE69
:102A8000ADBFEDB7FEB7319612961C930E9311971A
:102A90008EE891E09383828380919C0390919D03C3
:102AA0009583848380919A0390919B039783868377
:102AB0000E94AB2E8DB79EB708960FB6F8949EBFB6
:102AC0000FBE8DBFC8010E94C20889E291E00E943A
:102AD000C2081F910F9108951F920F920FB60F9287
:102AE00011242F933F934F935F936F937F938F9313
:102AF0009F93AF93BF93EF93FF938091AB0390911C
:102B0000AC0301969093AC038093AB038091AD032B
:102B10009091AE0301969093AE038093AD030E9413
:102B20006514FF91EF91BF91AF919F918F917F912C
:102B30006F915F914F913F912F910F900FBE0F902A
:102B40001F901895CF92DF92EF92FF920F931F93F1
:102B5000D82EC62E79018DB79EB708970FB6F89478
:102B60009EBF0FBE8DBFEDB7FEB7319608E814E0EB
:102B7000ADB7BEB712961C930E9311978EE190E0FD
:102B8000938382838CE991E0958384835783468382
:102B90000E947A2E8DB79EB708960FB6F8949EBF06
:102BA0000FBE8DBF8D2D6C2DA80197010E940828A6
:102BB0001F910F91FF90EF90DF90CF9008951F939A
:102BC000CF93DF938091A4038823C9F18091B3034D
:102BD0009091B40301969093B4038093B3030E9441
:102BE00029268AE065E04FE951E021E030E00E94CB
:102BF000082884E164E14CEA51E021E030E00E94E1
:102C00000828409194035091950387E364E121E003
:102C100030E00E94A21584E16EE143EB51E021E037
:102C200030E00E940828409192035091930387E37B
:102C30006EE121E030E00E94A2150E9428288FB1A9
:102C4000829586958695837080FD32C08FB182957E
:102C50008695877080FD2CC032C01092A40310921C
:102C600090031093D902109291031092A503D09370
:102C7000DB02C093DA021092930310929203D09376
:102C8000DD02C093DC02109295031092940310921F
:102C90009703109296031092990310929803109242
:102CA000AC031092AB031092A3030E94F50803C07B
:102CB00011E0C3E0D0E07E99D0CF7D99CECFDF91F7
:102CC000CF911F9108958091DA029091DB02892BB8
:102CD00069F41092D9021092910381E090E09093F0
:102CE00095038093940381E08093A3030E94292697
:102CF0004091DA025091DB028AE266E121E030E0A5
:102D00000E94A21584EE9CE028EC30E0F901319796
:102D1000F1F70197D9F78091DA029091DB020197E0
:102D20009093DB028093DA0208958091A5038823B3
:102D300099F10E9429268FE069E14CEA51E021E0F7
:102D400030E00E940828409194035091950382E35B
:102D500069E121E030E00E94A2158FE065E043EBDD
:102D600051E021E030E00E94082840919203509108
:102D7000930382E365E021E030E00E94A2150E9407
:102D8000282880E29EE428EC30E0F9013197F1F741
:102D90000197D9F71092A5030895189B7FC00E9450
:102DA000292681E08093900385E065E043EB51E0C4
:102DB00021E030E00E940828409192035091930353
:102DC00088E265E021E030E00E94A21585E06FE036
:102DD0004AEB51E021E030E00E9408284091DC02FB
:102DE0005091DD0288E26FE021E030E00E94A21500
:102DF00085E069E14CEA51E021E030E00E940828DA
:102E0000409194035091950388E269E121E030E01C
:102E10000E94A21585E063E241EC51E021E030E040
:102E20000E94082880919803909199030A9744F48E
:102E300088E263E248EC51E021E030E00E9408289B
:102E400040919803509199038EE263E221E030E0D3
:102E50000E94A21583E363E24AEC51E021E030E0F6
:102E60000E94082840919603509197034A305105DB
:102E700074F488E363E248EC51E021E030E00E9422
:102E8000082840919603509197038DE301C088E391
:102E900063E221E030E00E94A215089510929003B1
:102EA00008952F923F924F925F926F927F928F92EE
:102EB0009F92AF92BF92CF92DF92EF92FF920F93C9
:102EC0001F93DF93CF93CDB7DEB760970FB6F8941B
:102ED000DEBF0FBECDBF6091560470915704809144
:102EE0005804909159040E94D32B0E94502A709349
:102EF000AA046093A90460915A0470915B048091C4
:102F00005C0490915D040E94D32B0E94502A709320
:102F100017056093160560916F047091700480919D
:102F20007104909172040E94D32B0E94502A7093D6
:102F3000A7046093A6046091730470917404809157
:102F40007504909176040E94D32B0E94502A7093AE
:102F5000EC036093EB036091C0047091C104809115
:102F6000C2049091C3040E94D32B0E94502A7093F4
:102F70001505609314056091C4047091C504809197
:102F8000C6049091C7040E94D32B0E94502A7093CC
:102F90008704609386046091D6037091D703809173
:102FA000D8039091D9030E94D32B0E94502A70938A
:102FB0006C0460936B046091DA037091DB03809181
:102FC000DC039091DD030E94D32B0E94502A709362
:102FD0008504609384048091DC029091DD021816D0
:102FE000190634F081E08093A4030E94DF1578C6AF
:102FF0000E9495160E9429260E94A9080E94491441
:103000000E94A00780919103882331F08091A3034F
:10301000882311F40E9463160E9450030E94B20993
:103020000E94AF020E94CD160E94BA138FE694E070
:103030006AEE74E047E050E02BE030E008E010E09A
:10304000EAE0EE2EF12C0E94EC06882339F0809104
:103050009E03882319F00E941B0BC7C08FE694E0E3
:103060006AEE74E047E050E02BE030E008E010E06A
:10307000BAE0EB2EF12C0E94EC06882309F4ACC0D8
:10308000609173047091740480917504909176043A
:103090000E94D32B3B014C016091EE047091EF0430
:1030A0008091F0049091F1040E94D32B1B012C011C
:1030B0006091FB0470E0882777FD8095982F0E942F
:1030C000832A9B01AC01C201B1010E947D2920E04D
:1030D00030E040E85FE30E947C299B01AC01C40121
:1030E000B3010E94E129882319F41092E0027DC007
:1030F00060916F04709170048091710490917204DA
:103100000E94D32B5B016C016091EA047091EB0487
:103110008091EC049091ED040E94D32B7B018C01F3
:1031200060917F0470E0882777FD8095982F0E943A
:10313000832A9B01AC01C601B5010E947D2920E0D4
:1031400030E040E85FE30E947C29A80197010E94DB
:10315000E129882319F41092DF0247C06091FA0434
:1031600070E0882777FD8095982F0E94832A9B0125
:10317000AC01C801B7010E947D2920E030E040E8A1
:103180005FE30E947C299B01AC01C601B5010E944E
:10319000E129882319F41092DE0227C0609180048F
:1031A00070E0882777FD8095982F0E94832A9B01E5
:1031B000AC01C401B3010E947D2920E030E040E869
:1031C0005FE30E947C29A20191010E94E1298823EA
:1031D00061F41092E10209C081E08093E0028093E3
:1031E000DF028093DE028093E1028091940390914C
:1031F00095030197029798F48FE694E066ED73E0EB
:1032000047E050E02BE030E005E010E0A6E0EA2ED9
:10321000F12C0E94EC06882311F00E94A413409127
:10322000E6032091E7030091FA04E090FB0486EDA9
:1032300093E06AEE74E050E030E010E0FF240E947A
:10324000EC06882309F4F1C06091DA037091DB0386
:103250008091DC039091DD030E94D32B5B016C0114
:103260006091EE047091EF048091F0049091F1046C
:103270000E94D32B1B012C016091FB0470E0882776
:1032800077FD8095982F0E94832A9B01AC01C20193
:10329000B1010E947D2920E030E040E85FE30E9418
:1032A0007C299B01AC01C601B5010E94E129209156
:1032B000D6033091D7034091D8035091D903882386
:1032C000A9F4CA01B9010E94D32B6093D60370936D
:1032D000D7038093D8039093D903C601B50120E0AA
:1032E00030E040E050E40E947D2997C0CA01B90156
:1032F0000E94D32B7B018C016091EA047091EB0456
:103300008091EC049091ED040E94D32B3B014C0181
:103310006091E60370E0882777FD8095982F0E94E2
:10332000832A9B01AC01C801B7010E947D2920E0DE
:1033300030E040E85FE30E947C29A40193010E94F1
:10334000E129882349F4C801B70120E030E040E0DA
:1033500050E40E947C2925C06091FA0470E088271F
:1033600077FD8095982F0E94832A9B01AC01C401B0
:10337000B3010E947D2920E030E040E85FE30E9435
:103380007C299B01AC01C801B7010E94E129882377
:10339000C9F4C801B70120E030E040E050E40E94E9
:1033A0007D296093D6037093D7038093D8039093BD
:1033B000D903A092DA03B092DB03C092DC03D0926F
:1033C000DD0333C06091E70370E0882777FD8095C7
:1033D000982F0E94832A9B01AC01C601B5010E946F
:1033E0007D2920E030E040E85FE30E947C29A201D3
:1033F00091010E94E1298823C1F4E092D603F09262
:10340000D7030093D8031093D903C601B50120E078
:1034100030E040E050E40E947C296093DA0370932E
:10342000DB038093DC039093DD038FE694E060EC94
:1034300074E047E050E02BE030E007E010E0F3E01C
:10344000EF2EF12C0E94EC06882359F080919E0308
:10345000882321F48CEC91E00E94C20881E08093E3
:103460009E038FE694E06AEE74E047E050E02BE0C4
:1034700030E008E010E0EAE0EE2EF12C0E94EC06CD
:10348000882351F080919E03882331F087EE91E0EC
:103490000E94C2080E941B0B809194039091950397
:1034A0008130910509F0A7C186ED93E066E574E0EF
:1034B00045E050E026E030E008E210E0B6E1EB2E17
:1034C000F12C0E94EC06882309F4D3C06091DA0342
:1034D0007091DB038091DC039091DD030E94D32B7C
:1034E0003B014C0160915A0470915B0480915C0433
:1034F00090915D040E94D32B1B012C0120E030E051
:1035000040EB51E40E947D2920E030E040E85FE399
:103510000E947C299B01AC01C401B3010E94E129F6
:103520002091D6033091D7034091D8035091D9030D
:103530008823A9F4CA01B9010E94D32B6093D60352
:103540007093D7038093D8039093D903C401B30138
:1035500020E030E040E050E40E947D2982C0CA01B2
:10356000B9010E94D32B7B018C01609156047091AC
:10357000570480915804909159040E94D32B5B0109
:103580006C01C801B70120E030E040EA50E40E943D
:103590007D2920E030E040E85FE30E947C29A6011D
:1035A00095010E94E129882349F4C801B70120E070
:1035B00030E040E050E40E947C291EC0C601B50105
:1035C00020E030E040E252E40E947D2920E030E03B
:1035D00040E85FE30E947C299B01AC01C801B70170
:1035E0000E94E1298823C9F4C801B70120E030E036
:1035F00040E050E40E947D296093D6037093D70386
:103600008093D8039093D9036092DA037092DB031E
:103610008092DC039092DD032CC0C401B30120E052
:1036200030E040EC50E40E947D2920E030E040E8AA
:103630005FE30E947C29A20191010E94E129882375
:10364000C1F4E092D603F092D7030093D80310930D
:10365000D903C401B30120E030E040E050E40E940F
:103660007C296093DA037093DB038093DC039093EF
:10367000DD038FE694E06AEE74E047E050E02BE073
:1036800030E008E010E0AAE0EA2EF12C0E94EC06FF
:10369000882331F080919E03882311F00E941B0B38
:1036A0008FE694E066E574E047E050E02BE030E020
:1036B00008E210E0F6E1EF2EF12C0E94EC068823E0
:1036C00009F48FC060917304709174048091750443
:1036D000909176040E94D32B3B014C0160915A04D7
:1036E00070915B0480915C0490915D040E94D32BE7
:1036F0001B012C0120E030E040EB51E40E947D29C9
:1037000020E030E040E85FE30E947C299B01AC01AF
:10371000C401B3010E94E129882319F41092E00248
:10372000DFC260916F047091700480917104909178
:1037300072040E94D32B5B016C016091560470915E
:10374000570480915804909159040E94D32B7B0117
:103750008C01C601B50120E030E040EE50E40E944B
:103760007D2920E030E040E85FE30E947C29A80149
:1037700097010E94E129882319F41092DF02B0C258
:10378000C801B70120E030E040E252E40E947D2908
:1037900020E030E040E85FE30E947C299B01AC011F
:1037A000C601B5010E94E129882319F41092DE02B6
:1037B00097C2C401B30120E030E040E351E40E942D
:1037C0007D2920E030E040E85FE30E947C29A201EF
:1037D00091010E94E129882309F082C21092E1023E
:1037E0007FC281E08093E0028093DF028093DE025B
:1037F0008093E10275C28230910519F50091BB04F6
:10380000E090BC048FE694E06BEA74E047E050E09F
:103810002BE030E010E0FF240E94EC06882309F43E
:103820005FC28091BD04882349F0809192039091FA
:1038300093030A9690939303809392031092BD048E
:103840004FC203970CF44CC28091A703882351F117
:103850008091A603882331F50091E504E090E60409
:103860008FE694E065ED74E047E050E02BE030E057
:1038700010E0FF240E94EC068823A1F011E01093D1
:10388000A60310939F0381E192E00E94C2088091F9
:10389000A203882329F01092A1031092A00302C072
:1038A0001093A2038FE694E066ED73E047E050E0EA
:1038B0002BE030E005E010E0E6E0EE2EF12C0E9477
:1038C000EC06882349F18091E803882329F180914F
:1038D000A603882399F010929F031092A6031092DA
:1038E000E7041092A7031092E8038DE292E00E9491
:1038F000C20882E492E00E94C20802C00E94A4139F
:103900008091A203882329F01092A0031092A103B2
:1039100003C081E08093A2038091A803882351F122
:103920000091D103E090D2038FE694E061EC73E064
:1039300047E050E02BE030E010E0FF240E94EC066E
:103940008823C1F08091A003882321F48DE592E0C3
:103950000E94C20891E09093A0038091A203882363
:1039600039F010929F031092A6031092A10302C097
:103970009093A2038091A903882309F47DC100914B
:103980000F05E09010058FE694E06FEF74E047E0DC
:1039900050E02BE030E010E0FF240E94EC0688238A
:1039A000C1F08091A103882321F486E792E00E9470
:1039B000C20891E09093A1038091A203882339F07B
:1039C0001092A00310929F031092A60302C090933E
:1039D000A2038091A103882309F4F1C00E94C806C4
:1039E0007B018C0160917F04669570E0882777FDEC
:1039F0008095982F0E94832A20916F043091700443
:103A000040917104509172040E947D292B013C0168
:103A1000C801B7010E94E5296D837E838F83988753
:103A200060918004669570E0882777FD8095982FD7
:103A30000E94832A2091730430917404409175048C
:103A4000509176040E947D294B015C01C801B701A9
:103A50000E94F32B69837A838B839C83C301B20119
:103A60000E94552A69877A878B879C87C501B40194
:103A70000E94552A6D877E878F87988B6D817E8106
:103A80008F81988520E030E040EA51E40E94702B5D
:103A90009B01AC01C301B2010E947D290E94502A02
:103AA0006B017C0169817A818B819C8120E030E00F
:103AB00040EA51E40E94702B9B01AC01C501B401A6
:103AC0000E947D290E94502A8B019C0189856D8569
:103AD0004C2D202F01E010E00E9464268FB18295CA
:103AE00086958695837080FD06C08FB182958695F8
:103AF000877080FFC1C081E08093AA031092A10368
:103B00001092A20360917F04669570E0882777FD8C
:103B10008095982F0E94832A20916F043091700421
:103B200040917104509172040E947D297B018C01A7
:103B30006D817E818F81988520E030E040E751E4FF
:103B40000E94702B9B01AC01C801B7010E947D2926
:103B50006093FF0470930005809301059093020524
:103B600060918004669570E0882777FD8095982F96
:103B70000E94832A2091730430917404409175044B
:103B8000509176040E947D297B018C0169817A81A4
:103B90008B819C8120E030E040E751E40E94702B53
:103BA0009B01AC01C801B7010E947D296093030508
:103BB0007093040580930505909306055DC0809180
:103BC000AA03882309F458C08091E2029091E3028D
:103BD000845690409093E3028093E20225E08C3D6E
:103BE000920759F0E3E0883E9E0719F42A982B9833
:103BF00043C0F1E0843F9F0719F42A9A2B9A3CC0F6
:103C00002A982B9818161906BCF180E992E00E94B8
:103C1000C2088091A804882329F18091E8038823B1
:103C200009F18091E2029091E3021816190624F13D
:103C30001092E80385EA92E00E94C2088091920304
:103C4000909193030A96909393038093920310921A
:103C5000A90380ED97E09093E3028093E202109233
:103C6000AA030AC080ED97E09093E3028093E202FA
:103C70001092AA031092A9031DEEA12E13E0B12EFB
:103C8000CC24DD2426C0F5010089E1888FE694E08C
:103C9000B50147E050E02BE030E010E0FF240E9447
:103CA000EC06882379F0F5018289882349F0809118
:103CB0009203909193030A969093930380939203B7
:103CC000F501128A0894C11CD11C85E190E0A80E70
:103CD000B91E80916D0490916E04C816D9069CF2AD
:103CE0000E94282860960FB6F894DEBF0FBECDBFA5
:103CF000CF91DF911F910F91FF90EF90DF90CF90C8
:103D0000BF90AF909F908F907F906F905F904F90FB
:103D10003F902F900895CF93DF930E94F508C0E263
:103D2000DEE40E945117CE010197F1F7FACF87E840
:103D300080937A000895982F9F71906490937C00EF
:103D4000807280937B0080917A00806480937A00F7
:103D500080917A0086FDFCCF209178003091790027
:103D6000C901089581E08093D70080EA8093D8004C
:103D700082E189BD09B400FEFDCF80E98093D800BF
:103D80001092E0001092BD031092BE038CE080936D
:103D9000E200789408958091BD0308952FB7F894B8
:103DA0008091BD03882369F083E08093E9009BE65E
:103DB0008091E80085FD09C082FF03C09093E80070
:103DC000F7CF2FBF2FEF3FEF0CC09091F100809104
:103DD000E80085FD03C08BE68093E8002FBF292F04
:103DE00030E0C90108952FB7F8948091BD0388236E
:103DF00011F490E010C083E08093E9009091F2000C
:103E0000992349F48091E80082FF05C085FD03C035
:103E10008BE68093E8002FBF892F08958091BD0322
:103E2000882371F09FB7F89483E08093E9002BE634
:103E300002C02093E8008091E80085FDFACF9FBF83
:103E40000895482F8091BD038823D9F12FB7F894A6
:103E500084E08093E9008091C003882341F0809141
:103E6000E80085FD02C02FBF12C01092C0039091E0
:103E7000E400975E34E08091E80085FD13C02FBF19
:103E80008091E400891729F481E08093C0038FEFCB
:103E900008958091BD038823A1F02FB7F894309343
:103EA000E900E9CF4093F1008091E80085FD03C06F
:103EB0008AE38093E80085E08093BF032FBF80E012
:103EC00008958FEF0895282F8091BD03882351F026
:103ED0009FB7F89484E08093E9008091E80085FD25
:103EE00003C09FBF8FEF08952093F1008091E800F9
:103EF00085FD03C08AE38093E80085E08093BF03DB
:103F00009FBF80E00895CF93DF93EC018091BD03C4
:103F1000882309F41CC13FB7F89484E08093E9003A
:103F20008091C003882309F408C18091E80085FDD1
:103F300002C03FBF0CC11092C003FFC09091E400CB
:103F4000975E8091E80085FD13C03FBF8091E4003B
:103F5000891721F481E08093C003F9C08091BD03EB
:103F6000882309F4F4C03FB7F894B093E900E9CF8F
:103F70008091F200242F281B822F90E06817790788
:103F800008F4262F822F90E08134910508F0C6C0F6
:103F90008A5A9F4FFC01EE0FFF1F0590F491E02D10
:103FA000099489918093F10089918093F10089911E
:103FB0008093F10089918093F10089918093F100C1
:103FC00089918093F10089918093F1008991809388
:103FD000F10089918093F10089918093F10089919A
:103FE0008093F10089918093F10089918093F10091
:103FF00089918093F10089918093F1008991809358
:10400000F10089918093F10089918093F100899169
:104010008093F10089918093F10089918093F10060
:1040200089918093F10089918093F1008991809327
:10403000F10089918093F10089918093F100899139
:104040008093F10089918093F10089918093F10030
:1040500089918093F10089918093F10089918093F7
:10406000F10089918093F10089918093F100899109
:104070008093F10089918093F10089918093F10000
:1040800089918093F10089918093F10089918093C7
:10409000F10089918093F10089918093F1008991D9
:1040A0008093F10089918093F10089918093F100D0
:1040B00089918093F10089918093F1008991809397
:1040C000F10089918093F10089918093F1008991A9
:1040D0008093F10089918093F10089918093F100A0
:1040E00089918093F10089918093F1008991809367
:1040F000F10089918093F10089918093F100899179
:104100008093F10089918093F10089918093F1006F
:1041100089918093F10089918093F1008991809336
:10412000F1008091E80085FD02C05093E800621B19
:104130007109A093BF033FBF04C0B4E040E45AE359
:10414000A5E06115710509F0F9CE80E001C08FEF9F
:10415000DF91CF9108959FB7F8948091BF03882392
:1041600041F084E08093E9008AE38093E8001092B4
:10417000BF039FBF0895609185037091860380916E
:104180008703909188030895809189030895809111
:104190008A03089580918B0308958091BE0308954A
:1041A000282F9FB7F8948091BD03882339F082E0CF
:1041B0008093E9008091E80085FD03C09FBF8FEFE9
:1041C000089581EA8093F10080E28093F1001092DB
:1041D000F1001092F1001092F1001092F10081E0D4
:1041E0008093F1001092F1002093F1008AE3809314
:1041F000E8009FBF80E008951F920F920FB60F92C4
:1042000011248F939F938091E1001092E100982FE9
:1042100083FF11C01092E90081E08093EB001092BF
:10422000EC0082E18093ED0088E08093F000109232
:10423000BD031092BE0392FF13C08091BD0388237B
:1042400079F08091BF03882359F081508093BF0398
:10425000882331F484E08093E9008AE38093E800C6
:104260009F918F910F900FBE0F901F9018951F92E6
:104270000F920FB60F9211240F931F932F933F931A
:104280004F935F936F937F938F939F93AF93BF935E
:10429000EF93FF931092E9008091E80083FF3CC107
:1042A0004091F1003091F1008091F100682F70E0B1
:1042B0002091F100922F80E0682B792B8091F10002
:1042C000A82FB0E02091F100922F80E0A82BB92B0D
:1042D0001091F1000091F10082EF8093E8003630F8
:1042E00009F05AC023E531E0A90145505040F901D9
:1042F0003797859194918617970701F5FA01859173
:1043000094918A179B07D1F49A012E5F3F4FF901D0
:10431000659174912E5F3F4FF9014491212F30E058
:10432000902F80E0282B392B2F3F310519F010F00A
:104330002FEF30E0241758F4422F09C0295F3F4F78
:10434000495F5F4FF1E02D373F0789F6E5C05EEF2B
:104350008091E800282F30E0C90185709070892B8A
:10436000B9F322FDDCC0342F413108F030E1232FB6
:10437000CB0106C0FC010196E491E093F1002150CD
:104380002223C1F7630F711D431B5093E8004423A0
:10439000F9F63031E9F2C3C0353061F48EEF809325
:1043A000E8008091E80080FFFCCF862F8068809332
:1043B000E300B5C0393051F5442309F0ADC0609336
:1043C000BD031092BE031092BF038EEF8093E800EE
:1043D00086E791E021E02093E900FC010196E49159
:1043E000E093EB00EE2369F0AC014F5F5F4FFC01FF
:1043F00084918093EC00CA010196FA0134913093C4
:10440000ED002F5F253039F78EE181C0383061F43F
:10441000403809F081C08091E80080FFFCCF809196
:10442000BD038093F10050C0313289F4413A09F064
:1044300073C08091E80080FFFCCFE5E8F3E0819154
:104440008093F10083E0EC38F807C9F73DC03032C3
:10445000A1F4413209F060C08091E80082FFFCCFF6
:10446000E5E8F3E08091F100819383E0EC38F80710
:10447000C9F78BEF8093E80027C0323251F4413204
:1044800009F04AC06093BE038091E80080FFFCCF32
:104490001BC03323E9F48091E80080FFFCCF423851
:1044A00011F080E00DC0A093E9008091EB0090E056
:1044B00025E0969587952A95E1F781701092E9009D
:1044C0008093F1001092F1008EEF8093E80027C0F6
:1044D000313011F0333001F54230F1F4672BE1F463
:1044E0002A2F2F77822F81508430B0F48EEF809363
:1044F000E8002093E900333079F089E18093EB0004
:1045000081E090E002C0880F991F2A95E2F780931E
:10451000EA001092EA0003C081E28093EB00FF9171
:10452000EF91BF91AF919F918F917F916F915F912B
:104530004F913F912F911F910F910F900FBE0F90B0
:104540001F901895A1E1B0E0E8EAF2E20C94B42CD7
:104550003C017F876E876A01FC0117821682838186
:1045600081FD03C06FEF7FEF6FC39E012F5F3F4F51
:10457000398B288BF3012381EE85FF8523FD8591FF
:1045800023FF8191FF87EE87882309F45AC3853280
:1045900051F4EE85FF8523FD859123FF8191FF87EF
:1045A000EE87853229F490E0B3010E944E2EE2CFCF
:1045B000982F10E0882499241032B0F49B3269F0CF
:1045C0009C3228F4903251F0933271F40BC09D323A
:1045D00039F0903349F4116028C01260146025C08E
:1045E000186023C0106121C017FD2AC0892F805395
:1045F0008A3078F416FF06C0FAE09F9E902C1124B2
:10460000980E13C03AE0839E802C1124880E10620D
:104610000CC09E3221F416FD14C3106406C09C36F3
:1046200011F4106802C0983659F4EE85FF8523FD19
:10463000959123FF9191FF87EE87992309F0BCCFD5
:10464000892F8554833020F4812F8061905E07C0CC
:10465000892F8556833008F09FC1812F8F7E86FD7C
:1046600002C076E0972E6FE3F62EF822953619F405
:10467000F0E4FF2A07C0963619F420E8F22A02C0B7
:1046800091109A94F7FE0AC03BE3391518F45CE3E5
:10469000B52E02C0B92CB39427E009C047E04915F4
:1046A00020F4BB2447E0942EF7CF292DBB24C6016C
:1046B00004969D878C87F601608171818281938148
:1046C000AE014F5F5F4F0B2D0E94602D6C01098181
:1046D000202E332400FF04C003FD02C01DE209C0E8
:1046E000F1FE02C01BE205C0F2FC02C010E001C0F6
:1046F00010E2C1018C709070892BB9F1112311F473
:1047000083E001C084E0881510F088240AC0881A6C
:10471000F3FC07C080E290E0B3010E944E2E8A9421
:10472000C9F7112329F0812F90E0B3010E944E2E8A
:1047300023FE03C005E112E00EC009E112E00BC048
:10474000E114F10409F0805290E0B3010E944E2E72
:104750000F5F1F4F05C0EF2CFF24F0E1EF22FF2475
:10476000F8018491882361F714C1F7FE12C0BC0CD4
:1047700024FE04C08A81813309F4BA941B141CF00E
:10478000BB24B3942DC0F8E0FB1550F538E0B32EF0
:1047900027C0F6FC25C0892D90E08C159D054CF0B6
:1047A0002CEFC2162FEFD20624F030E8F32A01C016
:1047B0009A94992049F0E2E0F0E0EC0FFD1FE90D3A
:1047C000F11D80818033A1F3F7FE0AC0B92CB394A8
:1047D000892D90E0C816D90614F0992401C09C18C0
:1047E000F7FC03C025E030E009C01C141D041CF0D8
:1047F00021E030E003C096012F5F3F4F112311F0FD
:104800002F5F3F4F992029F0892D90E00196280FC6
:10481000391F882D90E02817390714F0882401C02B
:10482000821A4F2C5524C20189709070892B39F05F
:1048300008C080E290E0B3010E944E2E8A94882046
:10484000C1F7112329F0812F90E0B3010E944E2E71
:1048500043FE07C008C080E390E0B3010E944E2EE3
:104860008A948820C1F7F7FE46C08601D7FE02C0B1
:1048700000E010E076010894E11CF11CE01AF10A56
:1048800041E050E04C0F5D1FE40EF51E26014B1871
:104890005108892D90E0AA24BB24A81AB90A5FEF19
:1048A0000F3F150729F48EE290E0B3010E944E2ECF
:1048B000C016D10634F0401651061CF4F701808171
:1048C00001C080E3015010400894E11CF11C0A155E
:1048D0001B052CF090E0B3010E944E2EE0CF0C158A
:1048E0001D0539F49A81963318F4953311F424FE9A
:1048F00081E390E04BC08A81813309F00F7E90E024
:10490000B3010E944E2E9920A1F08EE290E0B301F7
:104910000E944E2E12E0E1E0F0E0EC0FFD1FE10FEF
:10492000F11D1F5F808190E0B3010E944E2E9A948A
:1049300091F744FC03C085E690E002C085E490E076
:10494000B3010E944E2ED7FC05C0C114D10441F41E
:1049500004FF06C0D094C194D108D3948DE201C065
:104960008BE290E0B3010E944E2E80E305C08F5F82
:1049700026EF3FEFC20ED31E3AE0C316D104BCF7B8
:1049800090E0B3010E944E2EC601C096B3010E9472
:104990004E2ECC84DD8452C1933631F0933799F09A
:1049A000933509F059C023C0F601808189835E01E7
:1049B0000894A11CB11C22E030E0C20ED31E21E0FD
:1049C000E22EF12C12C0F601A080B18016FD03C0CA
:1049D0006FEF7FEF02C0692D70E022E030E0C20E81
:1049E000D31EC5010E94432E7C011F7713C0F60120
:1049F000A080B18016FD03C06FEF7FEF02C0692D6C
:104A000070E022E030E0C20ED31EC5010E94382EB5
:104A10007C01106813FF07C01BC080E290E0B30167
:104A20000E944E2E8A94882D90E0E816F906A8F38D
:104A30000FC0F50117FD859117FF81915F0190E08F
:104A4000B3010E944E2E81108A940894E108F10867
:104A5000E114F10471F7F2C0943611F0993689F53A
:104A600017FF08C0F601208131814281538184E023
:104A700090E00AC0F601808191819C01442737FDB6
:104A80004095542F82E090E0C80ED91E9FE6F92E83
:104A9000F12257FF09C050954095309521953F4F21
:104AA0004F4F5F4F90E8F92ACA01B901AE014F5F3D
:104AB0005F4F2AE030E00E94CF2EE82EE889EE1A00
:104AC00041C0953721F41F7E2AE030E01CC0197FD9
:104AD0009F3661F0903720F4983509F0B2C00FC0CE
:104AE000903739F0983709F0ACC004C028E030E0C6
:104AF0000AC0106114FD146020E130E004C014FD10
:104B0000166020E132E017FF08C0F6016081718174
:104B10008281938144E050E008C0F6018081918158
:104B2000BC0180E090E042E050E0C40ED51EAE0132
:104B30004F5F5F4F0E94CF2EE82E5889E51A8FE70E
:104B4000F82EF122F6FE0BC08EEFF822E91438F4AD
:104B5000F4FE07C0F2FC05C09FEEF92202C01E2D34
:104B600001C0192DF4FE0DC0FE01EE0DF11D808176
:104B7000803319F4E9EEFE2208C01F5FF2FE05C083
:104B800003C08F2D867809F01F5F0F2DF3FC14C032
:104B9000F0FE0FC0181510F09E2C0BC09E2C980C28
:104BA000911A182D06C080E290E0B3010E944E2EAB
:104BB0001F5F1815C0F304C0181510F4811A01C046
:104BC000882404FF0FC080E390E0B3010E944E2EC2
:104BD00002FF1DC001FD03C088E790E00EC088E51C
:104BE00090E00BC0802F867891F001FF02C08BE22D
:104BF00001C080E2F7FC8DE290E0B3010E944E2EEE
:104C000006C080E390E0B3010E944E2E9A94E9140E
:104C1000C0F3EA94E1E0F0E0EC0FFD1FEE0DF11DB2
:104C2000808190E0B3010E944E2EEE2091F706C0E5
:104C300080E290E0B3010E944E2E8A948820C1F752
:104C400099CCF30166817781CB016196E2E10C9406
:104C5000D02CE8E1F5E0119287E0E031F807D9F7D0
:104C60000895843580F5603370F5262F26952695B6
:104C70002695677090E0442399F0E4E52E9FF001BB
:104C80001124E80FF91FE85EFA4F81E090E002C0BE
:104C9000880F991F6A95E2F72081282B20830895B9
:104CA000E4E52E9FF0011124E80FF91FE85EFA4FAA
:104CB00081E090E002C0880F991F6A95E2F7809525
:104CC00020812823208308952F923F924F925F9254
:104CD0006F927F928F929F92AF92BF92CF92DF920C
:104CE000EF92FF920F931F93DF93CF93CDB7DEB771
:104CF0002E970FB6F894DEBF0FBECDBFE82ED62E8E
:104D0000142FF22E0C878417F9F4862E9924A22EE4
:104D1000BB240EC08E2D682D4C850E943126DF14D9
:104D200020F40894811C911C03C008948108910808
:104D3000DF1428F4A814B9040CF4FCC0EBCF8A14D7
:104D40009B040CF4F7C0E6CF6217F9F4882E99247F
:104D5000A42EBB240EC0882D6D2D4C850E943126BB
:104D6000E11620F40894811C911C03C0089481086A
:104D70009108E11628F4A814B9040CF4DBC0EBCFB9
:104D80008A149B040CF4D6C0E6CF481720F41E2DDD
:104D9000E42EF62ED22E812F90E09A838983AE2CBA
:104DA000BB24BC016A197B09882777FD8095982F61
:104DB0000E94832A6F83788789879A872F2C3324D0
:104DC0008D2C9924B10168197909882777FD809580
:104DD000982F0E94832A6B837C838D839E832F81EF
:104DE000388549855A850E94E8292B013C0120E03D
:104DF00030E040E050E00E946C2B87FF04C077FA5F
:104E0000709477F870940F2EF0E0CF2EF0E0DF2E44
:104E1000F0E0EF2EF0E0FF2EF02D74C0AB868A2D6F
:104E2000682D4C850E943126C701B601A30192016D
:104E30000E947D2935C08B85682D4C850E943126C6
:104E40001E861D866B817C818D819E8120E030E0F5
:104E500040E050E00E946C2B181624F4E1E0F0E0F2
:104E6000FE87ED8700E010E06B817C818D819E8163
:104E700020E030E040E050E00E94E129882314F473
:104E800001E010E08D859E85801B910B880E991E98
:104E9000C701B60120E030E040E85FE30E947C29D2
:104EA0006B017C0120E030E040E05FE30E946C2B6E
:104EB0008823ACF06B817C818D819E8120E030E085
:104EC00040E050E00E946C2B18162CF42814390492
:104ED0000CF0B1CF04C0821493040CF0ACCF6F81FE
:104EE000788589859A8520E030E040E050E00E9496
:104EF0006C2B181624F40894A11CB11C03C0089450
:104F0000A108B1086F81788589859A8520E030E015
:104F100040E050E00E946C2B181634F4E981FA81CD
:104F2000EA15FB053CF07ACF89819A81A816B9066B
:104F30000CF074CF2E960FB6F894DEBF0FBECDBF27
:104F4000CF91DF911F910F91FF90EF90DF90CF9065
:104F5000BF90AF909F908F907F906F905F904F9099
:104F60003F902F9008957F928F929F92AF92BF9221
:104F7000CF92DF92EF92FF920F931F93CF93DF9325
:104F8000D82E762EC22E85E0489FA00111248A01DA
:104F900003581E4F91E0892E912C82E8A82E81E0C3
:104FA000B82EA40EB51EF8018491CC2009F480958A
:104FB000C0E0D0E0E82EFF24672D6C0FA4010C2E7A
:104FC00002C0440F551F0A94E2F74E215F210C2EB8
:104FD00002C0559547950A94E2F78D2D0E9431261F
:104FE0002196C830D10541F70F5F1F4FD3940A15A2
:104FF0001B05C9F6DF91CF911F910F91FF90EF90A4
:10500000DF90CF90BF90AF909F908F907F9008954A
:10501000EF92FF920F931F93CF93DF93E62EEA0157
:10502000F22E082F10E007C0802F6E2D2F2D0E942A
:10503000B3270B5F1F5FFE01E10FF11D4081442389
:1050400099F7DF91CF911F910F91FF90EF90089505
:10505000CF93DF9380E060E00E949D28C8E1D5E017
:1050600081E069910E943B2887E0C031D807C1F7F1
:10507000DF91CF91089595B18295880F807E9F7DB5
:10508000982B95B95F9827E030E070E08F98CB01BE
:10509000022E02C0959587950A94E2F780FF02C020
:1050A0002E9A01C02E988F9A215030408FEF2F3FBB
:1050B000380761F75F9A08951F93182F579A249A1B
:1050C000259A269A879A2C985F9A2C9A80E061E21A
:1050D0000E943B28106880E0612F0E943B2880E0FE
:1050E00064E00E943B2880E063E10E943B2880E06E
:1050F0006CE00E943B2880E060E20E943B2880E058
:105100006CE00E943B2880E060E40E943B2880E045
:1051100060E80E943B281F910895CF93DF93C0E081
:10512000D0E081E060E00E943B28219681E0C83F0A
:10513000D807B9F7DF91CF9108951F93182F6064B6
:1051400080E00E943B28106880E0612F0E943B288D
:105150001F910895AF92BF92CF92EF920F931F933A
:10516000FC01408351836283738304831583268308
:105170003783E08AC18AB48AA38A81E0828B80E087
:1051800090E0A0E0B0E080879187A287B387848712
:105190009587A687B7871F910F91EF90CF90BF900B
:1051A000AF9008952F923F925F926F927F928F926D
:1051B0009F92AF92BF92CF92DF92EF92FF920F93A6
:1051C0001F93CF93DF938C01DC0152968C91529701
:1051D000882309F47FC06D917D918D919C910E94EF
:1051E000D32B0E94502A3B01F8012481358146814E
:1051F0005781643571050CF06DC0D80150968C91C3
:10520000C82FD0E0CE01860D971D181619060CF098
:1052100061C0CA01B9010E94D32B0E94502A4B01E0
:10522000603371050CF056C0F80181899401280F94
:10523000311D121613060CF04DC057E0A52EB12CEF
:10524000AC0EBD1E43E0B594A7944A95E1F7EE2459
:10525000FF24CC24DD2437E0232E312C30C0CE01B6
:1052600023E0959587952A95E1F7D8015396ED911E
:10527000FC915497EC0DFD1DE80FF91F408150E0A3
:10528000CE0187709070F101E81BF90B02C05595B3
:105290004795EA95E2F741709E01260D822F652D14
:1052A0000E9431262196D80150968C9190E0C81723
:1052B000D907ACF20894E11CF11CCA0CDB1CF80104
:1052C000818990E0E816F9062CF4C0E0D0E05E2C6D
:1052D000580CE9CFDF91CF911F910F91FF90EF9084
:1052E000DF90CF90BF90AF909F908F907F906F9006
:1052F0005F903F902F9008955058BB27AA270ED05B
:10530000A0C169D130F06ED120F031F49F3F11F48B
:105310001EF45EC10EF4E095E7FB54C1E92FB3D152
:1053200080F3BA17620773078407950718F071F4C2
:105330009EF5CBC10EF4E0950B2EBA2FA02D0B01DC
:10534000B90190010C01CA01A0011124FF27591BCA
:1053500099F0593F50F4503E68F11A16F040A22FD0
:10536000232F342F4427585FF3CF46953795279541
:10537000A795F0405395C9F77EF41F16BA0B620B40
:10538000730B840BBAF09150A1F0FF0FBB1F661F87
:10539000771F881FC2F70EC0BA0F621F731F841FCA
:1053A00048F4879577956795B795F7959E3F08F0F0
:1053B000B3CF9395880F08F09927EE0F97958795AF
:1053C0000895DCD008F481E0089514D1E3954AC132
:1053D0000CD037C107D140F0FED030F021F45F3F50
:1053E00019F0F0C0511172C1F3C04DD198F3992357
:1053F000C9F35523B1F3951B550BBB27AA27621799
:105400007307840738F09F5F5F4F220F331F441FDD
:10541000AA1FA9F333D00E2E3AF0E0E830D0915015
:105420005040E695001CCAF729D0FE2F27D0660F02
:10543000771F881FBB1F261737074807AB07B0E841
:1054400009F0BB0B802DBF01FF2793585F4F2AF057
:105450009E3F510568F0B6C039C15F3FECF3983EFE
:10546000DCF3869577956795B795F7959F5FC9F7B4
:10547000880F911D9695879597F90895E1E0660F3D
:10548000771F881FBB1F621773078407BA0720F0B6
:10549000621B730B840BBA0BEE1F88F7E09508951F
:1054A00004D06894B11112C10895F5D088F09F57C7
:1054B00090F0B92F9927B751A0F0D1F0660F771F60
:1054C000881F991F1AF0BA95C9F712C0B13081F040
:1054D000FCD0B1E00895F9C0672F782F8827B85F16
:1054E00039F0B93FCCF3869577956795B395D9F7A1
:1054F0003EF490958095709561957F4F8F4F9F4FAB
:105500000895E89409C097FB3EF4909580957095B6
:1055100061957F4F8F4F9F4F9923A9F0F92F96E9FF
:10552000BB279395F695879577956795B795F11174
:10553000F8CFFAF4BB0F11F460FF1BC06F5F7F4F11
:105540008F4F9F4F16C0882311F096E911C0772323
:1055500021F09EE8872F762F05C0662371F096E82C
:10556000862F70E060E02AF09A95660F771F881FFB
:10557000DAF7880F9695879597F90895990F00089F
:10558000550FAA0BE0E8FEEF16161706E807F90715
:10559000C0F012161306E407F50798F0621B730BB0
:1055A000840B950B39F40A2661F0232B242B252B31
:1055B00021F408950A2609F4A140A6958FEF811DD4
:1055C000811D089597F99F6780E870E060E0089575
:1055D0009FEF80EC089500240A941616170618060B
:1055E0000906089500240A941216130614060506E7
:1055F0000895EECF50D0E8F3E894E0E0BB279F5742
:10560000F0F02AED3FE049EC06C0EE0FBB0F661F3D
:10561000771F881F28F0B23A62077307840728F0C3
:10562000B25A620B730B840BE3959A9572F780382C
:1056300030F49A95BB0F661F771F881FD2F79048EA
:1056400037C1092E0394000C11F4882352F0BB0FCC
:1056500040F4BF2B11F460FF04C06F5F7F4F8F4F8A
:105660009F4F0895EF93E0FF06C0A2EA2AED3FE0C6
:1056700049EC5FEB53DEE5DF0F90039401FC90589B
:10568000EEE2F1E028C157FD9058440F551F59F044
:105690005F3F71F04795880F97FB991F61F09F3F1F
:1056A00079F087950895121613061406551FF2CF48
:1056B0004695F1DF08C0161617061806991FF1CF98
:1056C00086957105610508940895E894BB276627BF
:1056D0007727CB0197F9089551DF08F48FEF0895EC
:1056E0000BD0AFCF78DF28F07DDF18F0952309F0DD
:1056F00069CF6ECF1124EACFC6DFA0F3959FD1F317
:10570000950F50E0551F629FF001729FBB27F00D6F
:10571000B11D639FAA27F00DB11DAA1F649F6627C4
:10572000B00DA11D661F829F2227B00DA11D621F13
:10573000739FB00DA11D621F839FA00D611D221FCD
:10574000749F3327A00D611D231F849F600D211DB1
:10575000822F762F6A2F11249F5750408AF0E1F054
:1057600088234AF0EE0FFF1FBB1F661F771F881F9D
:1057700091505040A9F79E3F510570F023CFA6CF1E
:105780005F3FECF3983EDCF3869577956795B79588
:10579000F795E7959F5FC1F7FE2B880F911D9695B2
:1057A000879597F9089577DFE0F09E37D8F096391E
:1057B000B8F49E3848F4672F782F8827985FF9CF80
:1057C00086957795679593959539D0F3B62FB170F7
:1057D0006B0F711D811D20F48795779567959395C3
:1057E0004AC064C073CF9F9305DF0F9007FCEE5F44
:1057F00039CF11F40EF4ECCE59C04DDFD0F399231C
:10580000D9F3CEF39F57550B87FF5ED00024A0E657
:1058100040EA900180585695979528F4805C660F71
:10582000771F881F20F026173707480730F4621BC0
:10583000730B840B202931294A2BA69517940794C2
:10584000202531254A2758F7660F771F881F20F03B
:1058500026173707480730F4620B730B840B200DB3
:10586000311D411DA09581F7B901842F9158880FF2
:10587000969587950895882371F4772321F09850A1
:10588000872B762F07C0662311F499270DC09051FE
:10589000862B70E060E02AF09A95660F771F881FCC
:1058A000DAF7880F9695879597F908959F3F31F01D
:1058B000915020F4879577956795B795880F911D3E
:1058C0009695879597F9089591505040660F771FE8
:1058D000881FD2F708959F938F937F936F93FF93C1
:1058E000EF939B01AC01FCDEEF91FF9105D02F916E
:1058F0003F914F915F91F4CEDF93CF931F930F931E
:10590000FF92EF92DF927B018C01689405C0DA2E42
:10591000EF01F2DEFE01E894A591259135914591C4
:105920005591AEF3EF01FADCFE019701A801DA947C
:1059300079F7DF90EF90FF900F911F91CF91DF915A
:10594000089597FB092E07260AD077FD04D043D08F
:1059500006D000201AF4709561957F4F0895F6F7F0
:10596000909581959F4F08952F923F924F925F920D
:105970006F927F928F929F92AF92BF92CF92DF925F
:10598000EF92FF920F931F93CF93DF93CDB7DEB7C4
:10599000CA1BDB0B0FB6F894DEBF0FBECDBF099458
:1059A0002A88398848885F846E847D848C849B84AF
:1059B000AA84B984C884DF80EE80FD800C811B81BD
:1059C000AA81B981CE0FD11D0FB6F894DEBF0FBEEC
:1059D000CDBFED010895AA1BBB1B51E107C0AA1F53
:1059E000BB1FA617B70710F0A61BB70B881F991F80
:1059F0005A95A9F780959095BC01CD010895A0E036
:105A0000B0E0E5E0FDE20C94BC2CEC01A880B9808C
:105A1000CA80DB80A114B104C104D10441F484E242
:105A2000A82E89EDB82E8BE5C82E87E0D82EC601AA
:105A3000B5012DE133EF41E050E00E944C2F27EA01
:105A400031E440E050E00E942D2F7B018C01C60123
:105A5000B5012DE133EF41E050E00E944C2FCA0127
:105A6000B9012CEE34EF4FEF5FEF0E942D2F6E0D3A
:105A70007F1D801F911F97FF04C0615070408040C0
:105A80009048688379838A839B839B013F77C90110
:105A9000CDB7DEB7EAE00C94D82C0E94FF2C089515
:105AA0008CE893E00E94FF2C0895A0E0B0E0809382
:105AB0008C0390938D03A0938E03B0938F0308956E
:105AC000283008F027E03327DA01990F311D87FDD0
:105AD000916000966105710539F432602E5F3D9347
